{
  "contractName": "BTokenFactory",
  "abi": [
    {
      "anonymous": false,
      "inputs": [
        {
          "indexed": true,
          "internalType": "address",
          "name": "previousOwner",
          "type": "address"
        },
        {
          "indexed": true,
          "internalType": "address",
          "name": "newOwner",
          "type": "address"
        }
      ],
      "name": "OwnershipTransferred",
      "type": "event"
    },
    {
      "inputs": [],
      "name": "owner",
      "outputs": [
        {
          "internalType": "address",
          "name": "",
          "type": "address"
        }
      ],
      "stateMutability": "view",
      "type": "function",
      "constant": true
    },
    {
      "inputs": [],
      "name": "renounceOwnership",
      "outputs": [],
      "stateMutability": "nonpayable",
      "type": "function"
    },
    {
      "inputs": [
        {
          "internalType": "address",
          "name": "newOwner",
          "type": "address"
        }
      ],
      "name": "transferOwnership",
      "outputs": [],
      "stateMutability": "nonpayable",
      "type": "function"
    },
    {
      "inputs": [
        {
          "internalType": "address",
          "name": "underlyingContract",
          "type": "address"
        },
        {
          "internalType": "string",
          "name": "name",
          "type": "string"
        },
        {
          "internalType": "string",
          "name": "symbol",
          "type": "string"
        },
        {
          "internalType": "uint8",
          "name": "decimals",
          "type": "uint8"
        }
      ],
      "name": "createBToken",
      "outputs": [
        {
          "internalType": "address",
          "name": "",
          "type": "address"
        }
      ],
      "stateMutability": "nonpayable",
      "type": "function"
    }
  ],
  "bytecode": "0x608060405234801561001057600080fd5b5061003f61002b610044640100000000026401000000009004565b61004c640100000000026401000000009004565b610110565b600033905090565b60008060009054906101000a900473ffffffffffffffffffffffffffffffffffffffff169050816000806101000a81548173ffffffffffffffffffffffffffffffffffffffff021916908373ffffffffffffffffffffffffffffffffffffffff1602179055508173ffffffffffffffffffffffffffffffffffffffff168173ffffffffffffffffffffffffffffffffffffffff167f8be0079c531659141344cd1fd0a4f28419497f9722a3daafe3b4186f6b6457e060405160405180910390a35050565b6128538061011f6000396000f3fe60806040523480156200001157600080fd5b50600436106200006f576000357c010000000000000000000000000000000000000000000000000000000090048063715018a614620000745780638da5cb5b1462000080578063dc32805114620000a2578063f2fde38b14620000d8575b600080fd5b6200007e620000f8565b005b6200008a62000189565b604051620000999190620004a9565b60405180910390f35b620000c06004803603810190620000ba9190620006ab565b620001b2565b604051620000cf9190620004a9565b60405180910390f35b620000f66004803603810190620000f091906200075b565b62000286565b005b620001026200038a565b73ffffffffffffffffffffffffffffffffffffffff166200012262000189565b73ffffffffffffffffffffffffffffffffffffffff16146200017b576040517f08c379a00000000000000000000000000000000000000000000000000000000081526004016200017290620007ee565b60405180910390fd5b62000187600062000392565b565b60008060009054906101000a900473ffffffffffffffffffffffffffffffffffffffff16905090565b6000620001be6200038a565b73ffffffffffffffffffffffffffffffffffffffff16620001de62000189565b73ffffffffffffffffffffffffffffffffffffffff161462000237576040517f08c379a00000000000000000000000000000000000000000000000000000000081526004016200022e90620007ee565b60405180910390fd5b6000858585856040516200024b9062000456565b6200025a9493929190620008a3565b604051809103906000f08015801562000277573d6000803e3d6000fd5b50905080915050949350505050565b620002906200038a565b73ffffffffffffffffffffffffffffffffffffffff16620002b062000189565b73ffffffffffffffffffffffffffffffffffffffff161462000309576040517f08c379a00000000000000000000000000000000000000000000000000000000081526004016200030090620007ee565b60405180910390fd5b600073ffffffffffffffffffffffffffffffffffffffff168173ffffffffffffffffffffffffffffffffffffffff1614156200037c576040517f08c379a0000000000000000000000000000000000000000000000000000000008152600401620003739062000974565b60405180910390fd5b620003878162000392565b50565b600033905090565b60008060009054906101000a900473ffffffffffffffffffffffffffffffffffffffff169050816000806101000a81548173ffffffffffffffffffffffffffffffffffffffff021916908373ffffffffffffffffffffffffffffffffffffffff1602179055508173ffffffffffffffffffffffffffffffffffffffff168173ffffffffffffffffffffffffffffffffffffffff167f8be0079c531659141344cd1fd0a4f28419497f9722a3daafe3b4186f6b6457e060405160405180910390a35050565b611e87806200099783390190565b600073ffffffffffffffffffffffffffffffffffffffff82169050919050565b6000620004918262000464565b9050919050565b620004a38162000484565b82525050565b6000602082019050620004c0600083018462000498565b92915050565b6000604051905090565b600080fd5b600080fd5b620004e58162000484565b8114620004f157600080fd5b50565b6000813590506200050581620004da565b92915050565b600080fd5b600080fd5b6000601f19601f8301169050919050565b7f4e487b7100000000000000000000000000000000000000000000000000000000600052604160045260246000fd5b620005608262000515565b810181811067ffffffffffffffff8211171562000582576200058162000526565b5b80604052505050565b600062000597620004c6565b9050620005a5828262000555565b919050565b600067ffffffffffffffff821115620005c857620005c762000526565b5b620005d38262000515565b9050602081019050919050565b82818337600083830152505050565b6000620006066200060084620005aa565b6200058b565b90508281526020810184848401111562000625576200062462000510565b5b62000632848285620005e0565b509392505050565b600082601f8301126200065257620006516200050b565b5b813562000664848260208601620005ef565b91505092915050565b600060ff82169050919050565b62000685816200066d565b81146200069157600080fd5b50565b600081359050620006a5816200067a565b92915050565b60008060008060808587031215620006c857620006c7620004d0565b5b6000620006d887828801620004f4565b945050602085013567ffffffffffffffff811115620006fc57620006fb620004d5565b5b6200070a878288016200063a565b935050604085013567ffffffffffffffff8111156200072e576200072d620004d5565b5b6200073c878288016200063a565b92505060606200074f8782880162000694565b91505092959194509250565b600060208284031215620007745762000773620004d0565b5b60006200078484828501620004f4565b91505092915050565b600082825260208201905092915050565b7f4f776e61626c653a2063616c6c6572206973206e6f7420746865206f776e6572600082015250565b6000620007d66020836200078d565b9150620007e3826200079e565b602082019050919050565b600060208201905081810360008301526200080981620007c7565b9050919050565b600081519050919050565b60005b838110156200083b5780820151818401526020810190506200081e565b838111156200084b576000848401525b50505050565b60006200085e8262000810565b6200086a81856200078d565b93506200087c8185602086016200081b565b620008878162000515565b840191505092915050565b6200089d816200066d565b82525050565b6000608082019050620008ba600083018762000498565b8181036020830152620008ce818662000851565b90508181036040830152620008e4818562000851565b9050620008f5606083018462000892565b95945050505050565b7f4f776e61626c653a206e6577206f776e657220697320746865207a65726f206160008201527f6464726573730000000000000000000000000000000000000000000000000000602082015250565b60006200095c6026836200078d565b91506200096982620008fe565b604082019050919050565b600060208201905081810360008301526200098f816200094d565b905091905056fe60806040523480156200001157600080fd5b5060405162001e8738038062001e878339818101604052810190620000379190620004bd565b620000696200005462000101640100000000026401000000009004565b62000109640100000000026401000000009004565b83600860006101000a81548173ffffffffffffffffffffffffffffffffffffffff021916908373ffffffffffffffffffffffffffffffffffffffff1602179055508260019080519060200190620000c2929190620001cd565b508160029080519060200190620000db929190620001cd565b5080600360006101000a81548160ff021916908360ff16021790555050505050620005d2565b600033905090565b60008060009054906101000a900473ffffffffffffffffffffffffffffffffffffffff169050816000806101000a81548173ffffffffffffffffffffffffffffffffffffffff021916908373ffffffffffffffffffffffffffffffffffffffff1602179055508173ffffffffffffffffffffffffffffffffffffffff168173ffffffffffffffffffffffffffffffffffffffff167f8be0079c531659141344cd1fd0a4f28419497f9722a3daafe3b4186f6b6457e060405160405180910390a35050565b828054620001db906200059c565b90600052602060002090601f016020900481019282620001ff57600085556200024b565b82601f106200021a57805160ff19168380011785556200024b565b828001600101855582156200024b579182015b828111156200024a5782518255916020019190600101906200022d565b5b5090506200025a91906200025e565b5090565b5b80821115620002795760008160009055506001016200025f565b5090565b6000604051905090565b600080fd5b600080fd5b600073ffffffffffffffffffffffffffffffffffffffff82169050919050565b6000620002be8262000291565b9050919050565b620002d081620002b1565b8114620002dc57600080fd5b50565b600081519050620002f081620002c5565b92915050565b600080fd5b600080fd5b6000601f19601f8301169050919050565b7f4e487b7100000000000000000000000000000000000000000000000000000000600052604160045260246000fd5b6200034b8262000300565b810181811067ffffffffffffffff821117156200036d576200036c62000311565b5b80604052505050565b6000620003826200027d565b905062000390828262000340565b919050565b600067ffffffffffffffff821115620003b357620003b262000311565b5b620003be8262000300565b9050602081019050919050565b60005b83811015620003eb578082015181840152602081019050620003ce565b83811115620003fb576000848401525b50505050565b600062000418620004128462000395565b62000376565b905082815260208101848484011115620004375762000436620002fb565b5b62000444848285620003cb565b509392505050565b600082601f830112620004645762000463620002f6565b5b81516200047684826020860162000401565b91505092915050565b600060ff82169050919050565b62000497816200047f565b8114620004a357600080fd5b50565b600081519050620004b7816200048c565b92915050565b60008060008060808587031215620004da57620004d962000287565b5b6000620004ea87828801620002df565b945050602085015167ffffffffffffffff8111156200050e576200050d6200028c565b5b6200051c878288016200044c565b935050604085015167ffffffffffffffff81111562000540576200053f6200028c565b5b6200054e878288016200044c565b92505060606200056187828801620004a6565b91505092959194509250565b7f4e487b7100000000000000000000000000000000000000000000000000000000600052602260045260246000fd5b60006002820490506001821680620005b557607f821691505b60208210811415620005cc57620005cb6200056d565b5b50919050565b6118a580620005e26000396000f3fe608060405234801561001057600080fd5b506004361061013e576000357c01000000000000000000000000000000000000000000000000000000009004806370a08231116100ca57806395d89b411161008e57806395d89b4114610319578063a0712d6814610337578063a9059cbb14610367578063dd62ed3e14610397578063f2fde38b146103c75761013e565b806370a0823114610287578063715018a6146102b757806371c5e675146102c15780638da5cb5b146102dd5780638f840ddd146102fb5761013e565b806323b872dd1161011157806323b872dd146101cd578063313ce567146101fd57806342966c681461021b57806347bd37181461024b5780636c540baf146102695761013e565b806306fdde0314610143578063095ea7b31461016157806310cfe9061461019157806318160ddd146101af575b600080fd5b61014b6103e3565b604051610158919061116e565b60405180910390f35b61017b60048036038101906101769190611229565b610471565b6040516101889190611284565b60405180910390f35b610199610568565b6040516101a691906112ae565b60405180910390f35b6101b761058e565b6040516101c491906112d8565b60405180910390f35b6101e760048036038101906101e291906112f3565b610594565b6040516101f49190611284565b60405180910390f35b61020561090c565b6040516102129190611362565b60405180910390f35b6102356004803603810190610230919061137d565b61091f565b6040516102429190611284565b60405180910390f35b610253610a9d565b60405161026091906112d8565b60405180910390f35b610271610aa3565b60405161027e91906112d8565b60405180910390f35b6102a1600480360381019061029c91906113aa565b610aa9565b6040516102ae91906112d8565b60405180910390f35b6102bf610af2565b005b6102db60048036038101906102d691906113aa565b610b7a565b005b6102e5610c3a565b6040516102f291906112ae565b60405180910390f35b610303610c63565b60405161031091906112d8565b60405180910390f35b610321610c69565b60405161032e919061116e565b60405180910390f35b610351600480360381019061034c919061137d565b610cf7565b60405161035e9190611284565b60405180910390f35b610381600480360381019061037c9190611229565b610e75565b60405161038e9190611284565b60405180910390f35b6103b160048036038101906103ac91906113d7565b610e8a565b6040516103be91906112d8565b60405180910390f35b6103e160048036038101906103dc91906113aa565b610f11565b005b600180546103f090611446565b80601f016020809104026020016040519081016040528092919081815260200182805461041c90611446565b80156104695780601f1061043e57610100808354040283529160200191610469565b820191906000526020600020905b81548152906001019060200180831161044c57829003601f168201915b505050505081565b60008033905082600a60008373ffffffffffffffffffffffffffffffffffffffff1673ffffffffffffffffffffffffffffffffffffffff16815260200190815260200160002060008673ffffffffffffffffffffffffffffffffffffffff1673ffffffffffffffffffffffffffffffffffffffff168152602001908152602001600020819055508373ffffffffffffffffffffffffffffffffffffffff168173ffffffffffffffffffffffffffffffffffffffff167f8c5be1e5ebec7d5bd14f71427d1e84f3dd0314c0f7b2291e5b200ac8c7c3b9258560405161055591906112d8565b60405180910390a3600191505092915050565b600860009054906101000a900473ffffffffffffffffffffffffffffffffffffffff1681565b60075481565b60008082116105d8576040517f08c379a00000000000000000000000000000000000000000000000000000000081526004016105cf906114c4565b60405180910390fd5b8273ffffffffffffffffffffffffffffffffffffffff168473ffffffffffffffffffffffffffffffffffffffff161415610647576040517f08c379a000000000000000000000000000000000000000000000000000000000815260040161063e90611530565b60405180910390fd5b600061065285610aa9565b905082811015610697576040517f08c379a000000000000000000000000000000000000000000000000000000000815260040161068e9061159c565b60405180910390fd5b6000600a60008773ffffffffffffffffffffffffffffffffffffffff1673ffffffffffffffffffffffffffffffffffffffff16815260200190815260200160002060003373ffffffffffffffffffffffffffffffffffffffff1673ffffffffffffffffffffffffffffffffffffffff1681526020019081526020016000205490508381101561075b576040517f08c379a000000000000000000000000000000000000000000000000000000000815260040161075290611608565b60405180910390fd5b83600960008873ffffffffffffffffffffffffffffffffffffffff1673ffffffffffffffffffffffffffffffffffffffff16815260200190815260200160002060008282546107aa9190611657565b9250508190555083600960008773ffffffffffffffffffffffffffffffffffffffff1673ffffffffffffffffffffffffffffffffffffffff1681526020019081526020016000206000828254610800919061168b565b9250508190555083600a60008873ffffffffffffffffffffffffffffffffffffffff1673ffffffffffffffffffffffffffffffffffffffff16815260200190815260200160002060003373ffffffffffffffffffffffffffffffffffffffff1673ffffffffffffffffffffffffffffffffffffffff16815260200190815260200160002060008282546108939190611657565b925050819055508473ffffffffffffffffffffffffffffffffffffffff168673ffffffffffffffffffffffffffffffffffffffff167fddf252ad1be2c89b69c2b068fc378daa952ba7f163c4a11628f55a4df523b3ef866040516108f791906112d8565b60405180910390a36001925050509392505050565b600360009054906101000a900460ff1681565b6000808211610963576040517f08c379a000000000000000000000000000000000000000000000000000000000815260040161095a906114c4565b60405180910390fd5b6000600860009054906101000a900473ffffffffffffffffffffffffffffffffffffffff16905060008173ffffffffffffffffffffffffffffffffffffffff166323b872dd3033876040518463ffffffff167c01000000000000000000000000000000000000000000000000000000000281526004016109e5939291906116e1565b6020604051808303816000875af1158015610a04573d6000803e3d6000fd5b505050506040513d601f19601f82011682018060405250810190610a289190611744565b90508015610a3b57600092505050610a98565b83600960003373ffffffffffffffffffffffffffffffffffffffff1673ffffffffffffffffffffffffffffffffffffffff1681526020019081526020016000206000828254610a8a9190611657565b925050819055506001925050505b919050565b60055481565b60045481565b6000600960008373ffffffffffffffffffffffffffffffffffffffff1673ffffffffffffffffffffffffffffffffffffffff168152602001908152602001600020549050919050565b610afa611009565b73ffffffffffffffffffffffffffffffffffffffff16610b18610c3a565b73ffffffffffffffffffffffffffffffffffffffff1614610b6e576040517f08c379a0000000000000000000000000000000000000000000000000000000008152600401610b65906117bd565b60405180910390fd5b610b786000611011565b565b610b82611009565b73ffffffffffffffffffffffffffffffffffffffff16610ba0610c3a565b73ffffffffffffffffffffffffffffffffffffffff1614610bf6576040517f08c379a0000000000000000000000000000000000000000000000000000000008152600401610bed906117bd565b60405180910390fd5b80600860006101000a81548173ffffffffffffffffffffffffffffffffffffffff021916908373ffffffffffffffffffffffffffffffffffffffff16021790555050565b60008060009054906101000a900473ffffffffffffffffffffffffffffffffffffffff16905090565b60065481565b60028054610c7690611446565b80601f0160208091040260200160405190810160405280929190818152602001828054610ca290611446565b8015610cef5780601f10610cc457610100808354040283529160200191610cef565b820191906000526020600020905b815481529060010190602001808311610cd257829003601f168201915b505050505081565b6000808211610d3b576040517f08c379a0000000000000000000000000000000000000000000000000000000008152600401610d32906114c4565b60405180910390fd5b6000600860009054906101000a900473ffffffffffffffffffffffffffffffffffffffff16905060008173ffffffffffffffffffffffffffffffffffffffff166323b872dd3330876040518463ffffffff167c0100000000000000000000000000000000000000000000000000000000028152600401610dbd939291906116e1565b6020604051808303816000875af1158015610ddc573d6000803e3d6000fd5b505050506040513d601f19601f82011682018060405250810190610e009190611744565b90508015610e1357600092505050610e70565b83600960003373ffffffffffffffffffffffffffffffffffffffff1673ffffffffffffffffffffffffffffffffffffffff1681526020019081526020016000206000828254610e62919061168b565b925050819055506001925050505b919050565b6000610e82338484610594565b905092915050565b6000600a60008473ffffffffffffffffffffffffffffffffffffffff1673ffffffffffffffffffffffffffffffffffffffff16815260200190815260200160002060008373ffffffffffffffffffffffffffffffffffffffff1673ffffffffffffffffffffffffffffffffffffffff16815260200190815260200160002054905092915050565b610f19611009565b73ffffffffffffffffffffffffffffffffffffffff16610f37610c3a565b73ffffffffffffffffffffffffffffffffffffffff1614610f8d576040517f08c379a0000000000000000000000000000000000000000000000000000000008152600401610f84906117bd565b60405180910390fd5b600073ffffffffffffffffffffffffffffffffffffffff168173ffffffffffffffffffffffffffffffffffffffff161415610ffd576040517f08c379a0000000000000000000000000000000000000000000000000000000008152600401610ff49061184f565b60405180910390fd5b61100681611011565b50565b600033905090565b60008060009054906101000a900473ffffffffffffffffffffffffffffffffffffffff169050816000806101000a81548173ffffffffffffffffffffffffffffffffffffffff021916908373ffffffffffffffffffffffffffffffffffffffff1602179055508173ffffffffffffffffffffffffffffffffffffffff168173ffffffffffffffffffffffffffffffffffffffff167f8be0079c531659141344cd1fd0a4f28419497f9722a3daafe3b4186f6b6457e060405160405180910390a35050565b600081519050919050565b600082825260208201905092915050565b60005b8381101561110f5780820151818401526020810190506110f4565b8381111561111e576000848401525b50505050565b6000601f19601f8301169050919050565b6000611140826110d5565b61114a81856110e0565b935061115a8185602086016110f1565b61116381611124565b840191505092915050565b600060208201905081810360008301526111888184611135565b905092915050565b600080fd5b600073ffffffffffffffffffffffffffffffffffffffff82169050919050565b60006111c082611195565b9050919050565b6111d0816111b5565b81146111db57600080fd5b50565b6000813590506111ed816111c7565b92915050565b6000819050919050565b611206816111f3565b811461121157600080fd5b50565b600081359050611223816111fd565b92915050565b600080604083850312156112405761123f611190565b5b600061124e858286016111de565b925050602061125f85828601611214565b9150509250929050565b60008115159050919050565b61127e81611269565b82525050565b60006020820190506112996000830184611275565b92915050565b6112a8816111b5565b82525050565b60006020820190506112c3600083018461129f565b92915050565b6112d2816111f3565b82525050565b60006020820190506112ed60008301846112c9565b92915050565b60008060006060848603121561130c5761130b611190565b5b600061131a868287016111de565b935050602061132b868287016111de565b925050604061133c86828701611214565b9150509250925092565b600060ff82169050919050565b61135c81611346565b82525050565b60006020820190506113776000830184611353565b92915050565b60006020828403121561139357611392611190565b5b60006113a184828501611214565b91505092915050565b6000602082840312156113c0576113bf611190565b5b60006113ce848285016111de565b91505092915050565b600080604083850312156113ee576113ed611190565b5b60006113fc858286016111de565b925050602061140d858286016111de565b9150509250929050565b7f4e487b7100000000000000000000000000000000000000000000000000000000600052602260045260246000fd5b6000600282049050600182168061145e57607f821691505b6020821081141561147257611471611417565b5b50919050565b7f616d6f756e74206d7573742062652067726561746572207468616e2030000000600082015250565b60006114ae601d836110e0565b91506114b982611478565b602082019050919050565b600060208201905081810360008301526114dd816114a1565b9050919050565b7f63616e6e6f74207472616e7366657220746f2073656c66000000000000000000600082015250565b600061151a6017836110e0565b9150611525826114e4565b602082019050919050565b600060208201905081810360008301526115498161150d565b9050919050565b7f6e6f7420656e6f7567682062616c616e63650000000000000000000000000000600082015250565b60006115866012836110e0565b915061159182611550565b602082019050919050565b600060208201905081810360008301526115b581611579565b9050919050565b7f6e6f7420656e6f75676820616c6c6f77616e6365000000000000000000000000600082015250565b60006115f26014836110e0565b91506115fd826115bc565b602082019050919050565b60006020820190508181036000830152611621816115e5565b9050919050565b7f4e487b7100000000000000000000000000000000000000000000000000000000600052601160045260246000fd5b6000611662826111f3565b915061166d836111f3565b9250828210156116805761167f611628565b5b828203905092915050565b6000611696826111f3565b91506116a1836111f3565b9250827fffffffffffffffffffffffffffffffffffffffffffffffffffffffffffffffff038211156116d6576116d5611628565b5b828201905092915050565b60006060820190506116f6600083018661129f565b611703602083018561129f565b61171060408301846112c9565b949350505050565b61172181611269565b811461172c57600080fd5b50565b60008151905061173e81611718565b92915050565b60006020828403121561175a57611759611190565b5b60006117688482850161172f565b91505092915050565b7f4f776e61626c653a2063616c6c6572206973206e6f7420746865206f776e6572600082015250565b60006117a76020836110e0565b91506117b282611771565b602082019050919050565b600060208201905081810360008301526117d68161179a565b9050919050565b7f4f776e61626c653a206e6577206f776e657220697320746865207a65726f206160008201527f6464726573730000000000000000000000000000000000000000000000000000602082015250565b60006118396026836110e0565b9150611844826117dd565b604082019050919050565b600060208201905081810360008301526118688161182c565b905091905056fea2646970667358221220dfeb8550a0ed833890c01a5e000224183097890a5bab3a4923ec5617ba2ea94864736f6c634300080c0033a2646970667358221220a0192541e4fc6612d6ec9fd9879f7623a54e463dbb63dbd21d81008814abbc2264736f6c634300080c0033",
  "immutableReferences": {},
  "source": "pragma solidity >=0.7.0 <0.9.0;\r\n\r\nimport \"./BToken.sol\";\r\nimport \"@openzeppelin/contracts/access/Ownable.sol\";\r\n\r\ncontract BTokenFactory is Ownable {\r\n    function createBToken(\r\n        address underlyingContract,\r\n        string memory name,\r\n        string memory symbol,\r\n        uint8 decimals\r\n    ) external onlyOwner returns (address) {\r\n        BToken bToken = new BToken(underlyingContract, name, symbol, decimals);\r\n        return address(bToken);\r\n    }\r\n}\r\n",
  "sourcePath": "C:\\Lab\\Solidity\\BabyLoans-Protocol\\contracts\\BTokenFactory.sol",
  "compiler": {
    "name": "solc",
    "version": "0.8.12+commit.f00d7308.Emscripten.clang"
  },
  "schemaVersion": "3.4.7",
  "updatedAt": "2022-06-27T15:40:35.477Z",
  "networkType": "ethereum",
  "devdoc": {
    "kind": "dev",
    "methods": {
      "owner()": {
        "details": "Returns the address of the current owner."
      },
      "renounceOwnership()": {
        "details": "Leaves the contract without owner. It will not be possible to call `onlyOwner` functions anymore. Can only be called by the current owner. NOTE: Renouncing ownership will leave the contract without an owner, thereby removing any functionality that is only available to the owner."
      },
      "transferOwnership(address)": {
        "details": "Transfers ownership of the contract to a new account (`newOwner`). Can only be called by the current owner."
      }
    },
    "version": 1
  },
  "userdoc": {
    "kind": "user",
    "methods": {},
    "version": 1
  }
}