{
  "contractName": "BToken",
  "abi": [
    {
      "inputs": [
        {
          "internalType": "address",
          "name": "underlyingContract_",
          "type": "address"
        },
        {
          "internalType": "string",
          "name": "name_",
          "type": "string"
        },
        {
          "internalType": "string",
          "name": "symbol_",
          "type": "string"
        },
        {
          "internalType": "uint8",
          "name": "decimal_",
          "type": "uint8"
        }
      ],
      "stateMutability": "nonpayable",
      "type": "constructor"
    },
    {
      "anonymous": false,
      "inputs": [
        {
          "indexed": true,
          "internalType": "address",
          "name": "owner",
          "type": "address"
        },
        {
          "indexed": true,
          "internalType": "address",
          "name": "spender",
          "type": "address"
        },
        {
          "indexed": false,
          "internalType": "uint256",
          "name": "amount",
          "type": "uint256"
        }
      ],
      "name": "Approval",
      "type": "event"
    },
    {
      "anonymous": false,
      "inputs": [
        {
          "indexed": false,
          "internalType": "address",
          "name": "borrower",
          "type": "address"
        },
        {
          "indexed": false,
          "internalType": "uint256",
          "name": "borrowAmount",
          "type": "uint256"
        },
        {
          "indexed": false,
          "internalType": "uint256",
          "name": "accountBorrows",
          "type": "uint256"
        },
        {
          "indexed": false,
          "internalType": "uint256",
          "name": "totalBorrows",
          "type": "uint256"
        }
      ],
      "name": "Borrow",
      "type": "event"
    },
    {
      "anonymous": false,
      "inputs": [
        {
          "indexed": false,
          "internalType": "address",
          "name": "minter",
          "type": "address"
        },
        {
          "indexed": false,
          "internalType": "uint256",
          "name": "mintAmount",
          "type": "uint256"
        },
        {
          "indexed": false,
          "internalType": "uint256",
          "name": "mintTokens",
          "type": "uint256"
        }
      ],
      "name": "Mint",
      "type": "event"
    },
    {
      "anonymous": false,
      "inputs": [
        {
          "indexed": true,
          "internalType": "address",
          "name": "owner",
          "type": "address"
        },
        {
          "indexed": false,
          "internalType": "uint256",
          "name": "amount",
          "type": "uint256"
        }
      ],
      "name": "Mint",
      "type": "event"
    },
    {
      "anonymous": false,
      "inputs": [
        {
          "indexed": true,
          "internalType": "address",
          "name": "previousOwner",
          "type": "address"
        },
        {
          "indexed": true,
          "internalType": "address",
          "name": "newOwner",
          "type": "address"
        }
      ],
      "name": "OwnershipTransferred",
      "type": "event"
    },
    {
      "anonymous": false,
      "inputs": [
        {
          "indexed": true,
          "internalType": "address",
          "name": "from",
          "type": "address"
        },
        {
          "indexed": true,
          "internalType": "address",
          "name": "to",
          "type": "address"
        },
        {
          "indexed": false,
          "internalType": "uint256",
          "name": "amount",
          "type": "uint256"
        }
      ],
      "name": "Transfer",
      "type": "event"
    },
    {
      "inputs": [],
      "name": "accrualBlockNumber",
      "outputs": [
        {
          "internalType": "uint256",
          "name": "",
          "type": "uint256"
        }
      ],
      "stateMutability": "view",
      "type": "function"
    },
    {
      "inputs": [],
      "name": "decimals",
      "outputs": [
        {
          "internalType": "uint8",
          "name": "",
          "type": "uint8"
        }
      ],
      "stateMutability": "view",
      "type": "function"
    },
    {
      "inputs": [],
      "name": "name",
      "outputs": [
        {
          "internalType": "string",
          "name": "",
          "type": "string"
        }
      ],
      "stateMutability": "view",
      "type": "function"
    },
    {
      "inputs": [],
      "name": "owner",
      "outputs": [
        {
          "internalType": "address",
          "name": "",
          "type": "address"
        }
      ],
      "stateMutability": "view",
      "type": "function"
    },
    {
      "inputs": [],
      "name": "renounceOwnership",
      "outputs": [],
      "stateMutability": "nonpayable",
      "type": "function"
    },
    {
      "inputs": [],
      "name": "symbol",
      "outputs": [
        {
          "internalType": "string",
          "name": "",
          "type": "string"
        }
      ],
      "stateMutability": "view",
      "type": "function"
    },
    {
      "inputs": [],
      "name": "totalBorrows",
      "outputs": [
        {
          "internalType": "uint256",
          "name": "",
          "type": "uint256"
        }
      ],
      "stateMutability": "view",
      "type": "function"
    },
    {
      "inputs": [],
      "name": "totalReserves",
      "outputs": [
        {
          "internalType": "uint256",
          "name": "",
          "type": "uint256"
        }
      ],
      "stateMutability": "view",
      "type": "function"
    },
    {
      "inputs": [],
      "name": "totalSupply",
      "outputs": [
        {
          "internalType": "uint256",
          "name": "",
          "type": "uint256"
        }
      ],
      "stateMutability": "view",
      "type": "function"
    },
    {
      "inputs": [
        {
          "internalType": "address",
          "name": "newOwner",
          "type": "address"
        }
      ],
      "name": "transferOwnership",
      "outputs": [],
      "stateMutability": "nonpayable",
      "type": "function"
    },
    {
      "inputs": [],
      "name": "underlyingContract",
      "outputs": [
        {
          "internalType": "address",
          "name": "",
          "type": "address"
        }
      ],
      "stateMutability": "view",
      "type": "function"
    },
    {
      "inputs": [
        {
          "internalType": "address",
          "name": "newUnderlyingContract",
          "type": "address"
        }
      ],
      "name": "changeUnderlyingContract",
      "outputs": [],
      "stateMutability": "nonpayable",
      "type": "function"
    },
    {
      "inputs": [
        {
          "internalType": "address",
          "name": "dst",
          "type": "address"
        },
        {
          "internalType": "uint256",
          "name": "amount",
          "type": "uint256"
        }
      ],
      "name": "transfer",
      "outputs": [
        {
          "internalType": "bool",
          "name": "success",
          "type": "bool"
        }
      ],
      "stateMutability": "nonpayable",
      "type": "function"
    },
    {
      "inputs": [
        {
          "internalType": "address",
          "name": "src",
          "type": "address"
        },
        {
          "internalType": "address",
          "name": "dst",
          "type": "address"
        },
        {
          "internalType": "uint256",
          "name": "amount",
          "type": "uint256"
        }
      ],
      "name": "transferFrom",
      "outputs": [
        {
          "internalType": "bool",
          "name": "success",
          "type": "bool"
        }
      ],
      "stateMutability": "nonpayable",
      "type": "function"
    },
    {
      "inputs": [
        {
          "internalType": "address",
          "name": "owner",
          "type": "address"
        }
      ],
      "name": "balanceOf",
      "outputs": [
        {
          "internalType": "uint256",
          "name": "",
          "type": "uint256"
        }
      ],
      "stateMutability": "view",
      "type": "function"
    },
    {
      "inputs": [
        {
          "internalType": "address",
          "name": "spender",
          "type": "address"
        },
        {
          "internalType": "uint256",
          "name": "amount",
          "type": "uint256"
        }
      ],
      "name": "approve",
      "outputs": [
        {
          "internalType": "bool",
          "name": "",
          "type": "bool"
        }
      ],
      "stateMutability": "nonpayable",
      "type": "function"
    },
    {
      "inputs": [
        {
          "internalType": "address",
          "name": "owner",
          "type": "address"
        },
        {
          "internalType": "address",
          "name": "spender",
          "type": "address"
        }
      ],
      "name": "allowance",
      "outputs": [
        {
          "internalType": "uint256",
          "name": "",
          "type": "uint256"
        }
      ],
      "stateMutability": "view",
      "type": "function"
    },
    {
      "inputs": [
        {
          "internalType": "uint256",
          "name": "amount",
          "type": "uint256"
        }
      ],
      "name": "mint",
      "outputs": [
        {
          "internalType": "bool",
          "name": "",
          "type": "bool"
        }
      ],
      "stateMutability": "nonpayable",
      "type": "function"
    },
    {
      "inputs": [
        {
          "internalType": "uint256",
          "name": "amount",
          "type": "uint256"
        }
      ],
      "name": "burn",
      "outputs": [
        {
          "internalType": "bool",
          "name": "",
          "type": "bool"
        }
      ],
      "stateMutability": "nonpayable",
      "type": "function"
    }
  ],
  "bytecode": "0x60806040523480156200001157600080fd5b5060405162001ed538038062001ed58339818101604052810190620000379190620004bd565b620000696200005462000101640100000000026401000000009004565b62000109640100000000026401000000009004565b83600860006101000a81548173ffffffffffffffffffffffffffffffffffffffff021916908373ffffffffffffffffffffffffffffffffffffffff1602179055508260019080519060200190620000c2929190620001cd565b508160029080519060200190620000db929190620001cd565b5080600360006101000a81548160ff021916908360ff16021790555050505050620005d2565b600033905090565b60008060009054906101000a900473ffffffffffffffffffffffffffffffffffffffff169050816000806101000a81548173ffffffffffffffffffffffffffffffffffffffff021916908373ffffffffffffffffffffffffffffffffffffffff1602179055508173ffffffffffffffffffffffffffffffffffffffff168173ffffffffffffffffffffffffffffffffffffffff167f8be0079c531659141344cd1fd0a4f28419497f9722a3daafe3b4186f6b6457e060405160405180910390a35050565b828054620001db906200059c565b90600052602060002090601f016020900481019282620001ff57600085556200024b565b82601f106200021a57805160ff19168380011785556200024b565b828001600101855582156200024b579182015b828111156200024a5782518255916020019190600101906200022d565b5b5090506200025a91906200025e565b5090565b5b80821115620002795760008160009055506001016200025f565b5090565b6000604051905090565b600080fd5b600080fd5b600073ffffffffffffffffffffffffffffffffffffffff82169050919050565b6000620002be8262000291565b9050919050565b620002d081620002b1565b8114620002dc57600080fd5b50565b600081519050620002f081620002c5565b92915050565b600080fd5b600080fd5b6000601f19601f8301169050919050565b7f4e487b7100000000000000000000000000000000000000000000000000000000600052604160045260246000fd5b6200034b8262000300565b810181811067ffffffffffffffff821117156200036d576200036c62000311565b5b80604052505050565b6000620003826200027d565b905062000390828262000340565b919050565b600067ffffffffffffffff821115620003b357620003b262000311565b5b620003be8262000300565b9050602081019050919050565b60005b83811015620003eb578082015181840152602081019050620003ce565b83811115620003fb576000848401525b50505050565b600062000418620004128462000395565b62000376565b905082815260208101848484011115620004375762000436620002fb565b5b62000444848285620003cb565b509392505050565b600082601f830112620004645762000463620002f6565b5b81516200047684826020860162000401565b91505092915050565b600060ff82169050919050565b62000497816200047f565b8114620004a357600080fd5b50565b600081519050620004b7816200048c565b92915050565b60008060008060808587031215620004da57620004d962000287565b5b6000620004ea87828801620002df565b945050602085015167ffffffffffffffff8111156200050e576200050d6200028c565b5b6200051c878288016200044c565b935050604085015167ffffffffffffffff81111562000540576200053f6200028c565b5b6200054e878288016200044c565b92505060606200056187828801620004a6565b91505092959194509250565b7f4e487b7100000000000000000000000000000000000000000000000000000000600052602260045260246000fd5b60006002820490506001821680620005b557607f821691505b60208210811415620005cc57620005cb6200056d565b5b50919050565b6118f380620005e26000396000f3fe608060405234801561001057600080fd5b506004361061013e576000357c01000000000000000000000000000000000000000000000000000000009004806370a08231116100ca57806395d89b411161008e57806395d89b4114610319578063a0712d6814610337578063a9059cbb14610367578063dd62ed3e14610397578063f2fde38b146103c75761013e565b806370a0823114610287578063715018a6146102b757806371c5e675146102c15780638da5cb5b146102dd5780638f840ddd146102fb5761013e565b806323b872dd1161011157806323b872dd146101cd578063313ce567146101fd57806342966c681461021b57806347bd37181461024b5780636c540baf146102695761013e565b806306fdde0314610143578063095ea7b31461016157806310cfe9061461019157806318160ddd146101af575b600080fd5b61014b6103e3565b60405161015891906111bc565b60405180910390f35b61017b60048036038101906101769190611277565b610471565b60405161018891906112d2565b60405180910390f35b610199610568565b6040516101a691906112fc565b60405180910390f35b6101b761058e565b6040516101c49190611326565b60405180910390f35b6101e760048036038101906101e29190611341565b610594565b6040516101f491906112d2565b60405180910390f35b61020561090c565b60405161021291906113b0565b60405180910390f35b610235600480360381019061023091906113cb565b61091f565b60405161024291906112d2565b60405180910390f35b610253610a9d565b6040516102609190611326565b60405180910390f35b610271610aa3565b60405161027e9190611326565b60405180910390f35b6102a1600480360381019061029c91906113f8565b610aa9565b6040516102ae9190611326565b60405180910390f35b6102bf610af2565b005b6102db60048036038101906102d691906113f8565b610b7a565b005b6102e5610c3a565b6040516102f291906112fc565b60405180910390f35b610303610c63565b6040516103109190611326565b60405180910390f35b610321610c69565b60405161032e91906111bc565b60405180910390f35b610351600480360381019061034c91906113cb565b610cf7565b60405161035e91906112d2565b60405180910390f35b610381600480360381019061037c9190611277565b610ec3565b60405161038e91906112d2565b60405180910390f35b6103b160048036038101906103ac9190611425565b610ed8565b6040516103be9190611326565b60405180910390f35b6103e160048036038101906103dc91906113f8565b610f5f565b005b600180546103f090611494565b80601f016020809104026020016040519081016040528092919081815260200182805461041c90611494565b80156104695780601f1061043e57610100808354040283529160200191610469565b820191906000526020600020905b81548152906001019060200180831161044c57829003601f168201915b505050505081565b60008033905082600a60008373ffffffffffffffffffffffffffffffffffffffff1673ffffffffffffffffffffffffffffffffffffffff16815260200190815260200160002060008673ffffffffffffffffffffffffffffffffffffffff1673ffffffffffffffffffffffffffffffffffffffff168152602001908152602001600020819055508373ffffffffffffffffffffffffffffffffffffffff168173ffffffffffffffffffffffffffffffffffffffff167f8c5be1e5ebec7d5bd14f71427d1e84f3dd0314c0f7b2291e5b200ac8c7c3b925856040516105559190611326565b60405180910390a3600191505092915050565b600860009054906101000a900473ffffffffffffffffffffffffffffffffffffffff1681565b60075481565b60008082116105d8576040517f08c379a00000000000000000000000000000000000000000000000000000000081526004016105cf90611512565b60405180910390fd5b8273ffffffffffffffffffffffffffffffffffffffff168473ffffffffffffffffffffffffffffffffffffffff161415610647576040517f08c379a000000000000000000000000000000000000000000000000000000000815260040161063e9061157e565b60405180910390fd5b600061065285610aa9565b905082811015610697576040517f08c379a000000000000000000000000000000000000000000000000000000000815260040161068e906115ea565b60405180910390fd5b6000600a60008773ffffffffffffffffffffffffffffffffffffffff1673ffffffffffffffffffffffffffffffffffffffff16815260200190815260200160002060003373ffffffffffffffffffffffffffffffffffffffff1673ffffffffffffffffffffffffffffffffffffffff1681526020019081526020016000205490508381101561075b576040517f08c379a000000000000000000000000000000000000000000000000000000000815260040161075290611656565b60405180910390fd5b83600960008873ffffffffffffffffffffffffffffffffffffffff1673ffffffffffffffffffffffffffffffffffffffff16815260200190815260200160002060008282546107aa91906116a5565b9250508190555083600960008773ffffffffffffffffffffffffffffffffffffffff1673ffffffffffffffffffffffffffffffffffffffff168152602001908152602001600020600082825461080091906116d9565b9250508190555083600a60008873ffffffffffffffffffffffffffffffffffffffff1673ffffffffffffffffffffffffffffffffffffffff16815260200190815260200160002060003373ffffffffffffffffffffffffffffffffffffffff1673ffffffffffffffffffffffffffffffffffffffff168152602001908152602001600020600082825461089391906116a5565b925050819055508473ffffffffffffffffffffffffffffffffffffffff168673ffffffffffffffffffffffffffffffffffffffff167fddf252ad1be2c89b69c2b068fc378daa952ba7f163c4a11628f55a4df523b3ef866040516108f79190611326565b60405180910390a36001925050509392505050565b600360009054906101000a900460ff1681565b6000808211610963576040517f08c379a000000000000000000000000000000000000000000000000000000000815260040161095a90611512565b60405180910390fd5b6000600860009054906101000a900473ffffffffffffffffffffffffffffffffffffffff16905060008173ffffffffffffffffffffffffffffffffffffffff166323b872dd3033876040518463ffffffff167c01000000000000000000000000000000000000000000000000000000000281526004016109e59392919061172f565b6020604051808303816000875af1158015610a04573d6000803e3d6000fd5b505050506040513d601f19601f82011682018060405250810190610a289190611792565b90508015610a3b57600092505050610a98565b83600960003373ffffffffffffffffffffffffffffffffffffffff1673ffffffffffffffffffffffffffffffffffffffff1681526020019081526020016000206000828254610a8a91906116a5565b925050819055506001925050505b919050565b60055481565b60045481565b6000600960008373ffffffffffffffffffffffffffffffffffffffff1673ffffffffffffffffffffffffffffffffffffffff168152602001908152602001600020549050919050565b610afa611057565b73ffffffffffffffffffffffffffffffffffffffff16610b18610c3a565b73ffffffffffffffffffffffffffffffffffffffff1614610b6e576040517f08c379a0000000000000000000000000000000000000000000000000000000008152600401610b659061180b565b60405180910390fd5b610b78600061105f565b565b610b82611057565b73ffffffffffffffffffffffffffffffffffffffff16610ba0610c3a565b73ffffffffffffffffffffffffffffffffffffffff1614610bf6576040517f08c379a0000000000000000000000000000000000000000000000000000000008152600401610bed9061180b565b60405180910390fd5b80600860006101000a81548173ffffffffffffffffffffffffffffffffffffffff021916908373ffffffffffffffffffffffffffffffffffffffff16021790555050565b60008060009054906101000a900473ffffffffffffffffffffffffffffffffffffffff16905090565b60065481565b60028054610c7690611494565b80601f0160208091040260200160405190810160405280929190818152602001828054610ca290611494565b8015610cef5780601f10610cc457610100808354040283529160200191610cef565b820191906000526020600020905b815481529060010190602001808311610cd257829003601f168201915b505050505081565b6000808211610d3b576040517f08c379a0000000000000000000000000000000000000000000000000000000008152600401610d3290611512565b60405180910390fd5b6000600860009054906101000a900473ffffffffffffffffffffffffffffffffffffffff16905060008173ffffffffffffffffffffffffffffffffffffffff166323b872dd3330876040518463ffffffff167c0100000000000000000000000000000000000000000000000000000000028152600401610dbd9392919061172f565b6020604051808303816000875af1158015610ddc573d6000803e3d6000fd5b505050506040513d601f19601f82011682018060405250810190610e009190611792565b90508015610e1357600092505050610ebe565b83600960003373ffffffffffffffffffffffffffffffffffffffff1673ffffffffffffffffffffffffffffffffffffffff1681526020019081526020016000206000828254610e6291906116d9565b925050819055503373ffffffffffffffffffffffffffffffffffffffff167f0f6798a560793a54c3bcfe86a93cde1e73087d944c0ea20544137d412139688585604051610eaf9190611326565b60405180910390a26001925050505b919050565b6000610ed0338484610594565b905092915050565b6000600a60008473ffffffffffffffffffffffffffffffffffffffff1673ffffffffffffffffffffffffffffffffffffffff16815260200190815260200160002060008373ffffffffffffffffffffffffffffffffffffffff1673ffffffffffffffffffffffffffffffffffffffff16815260200190815260200160002054905092915050565b610f67611057565b73ffffffffffffffffffffffffffffffffffffffff16610f85610c3a565b73ffffffffffffffffffffffffffffffffffffffff1614610fdb576040517f08c379a0000000000000000000000000000000000000000000000000000000008152600401610fd29061180b565b60405180910390fd5b600073ffffffffffffffffffffffffffffffffffffffff168173ffffffffffffffffffffffffffffffffffffffff16141561104b576040517f08c379a00000000000000000000000000000000000000000000000000000000081526004016110429061189d565b60405180910390fd5b6110548161105f565b50565b600033905090565b60008060009054906101000a900473ffffffffffffffffffffffffffffffffffffffff169050816000806101000a81548173ffffffffffffffffffffffffffffffffffffffff021916908373ffffffffffffffffffffffffffffffffffffffff1602179055508173ffffffffffffffffffffffffffffffffffffffff168173ffffffffffffffffffffffffffffffffffffffff167f8be0079c531659141344cd1fd0a4f28419497f9722a3daafe3b4186f6b6457e060405160405180910390a35050565b600081519050919050565b600082825260208201905092915050565b60005b8381101561115d578082015181840152602081019050611142565b8381111561116c576000848401525b50505050565b6000601f19601f8301169050919050565b600061118e82611123565b611198818561112e565b93506111a881856020860161113f565b6111b181611172565b840191505092915050565b600060208201905081810360008301526111d68184611183565b905092915050565b600080fd5b600073ffffffffffffffffffffffffffffffffffffffff82169050919050565b600061120e826111e3565b9050919050565b61121e81611203565b811461122957600080fd5b50565b60008135905061123b81611215565b92915050565b6000819050919050565b61125481611241565b811461125f57600080fd5b50565b6000813590506112718161124b565b92915050565b6000806040838503121561128e5761128d6111de565b5b600061129c8582860161122c565b92505060206112ad85828601611262565b9150509250929050565b60008115159050919050565b6112cc816112b7565b82525050565b60006020820190506112e760008301846112c3565b92915050565b6112f681611203565b82525050565b600060208201905061131160008301846112ed565b92915050565b61132081611241565b82525050565b600060208201905061133b6000830184611317565b92915050565b60008060006060848603121561135a576113596111de565b5b60006113688682870161122c565b93505060206113798682870161122c565b925050604061138a86828701611262565b9150509250925092565b600060ff82169050919050565b6113aa81611394565b82525050565b60006020820190506113c560008301846113a1565b92915050565b6000602082840312156113e1576113e06111de565b5b60006113ef84828501611262565b91505092915050565b60006020828403121561140e5761140d6111de565b5b600061141c8482850161122c565b91505092915050565b6000806040838503121561143c5761143b6111de565b5b600061144a8582860161122c565b925050602061145b8582860161122c565b9150509250929050565b7f4e487b7100000000000000000000000000000000000000000000000000000000600052602260045260246000fd5b600060028204905060018216806114ac57607f821691505b602082108114156114c0576114bf611465565b5b50919050565b7f616d6f756e74206d7573742062652067726561746572207468616e2030000000600082015250565b60006114fc601d8361112e565b9150611507826114c6565b602082019050919050565b6000602082019050818103600083015261152b816114ef565b9050919050565b7f63616e6e6f74207472616e7366657220746f2073656c66000000000000000000600082015250565b600061156860178361112e565b915061157382611532565b602082019050919050565b600060208201905081810360008301526115978161155b565b9050919050565b7f6e6f7420656e6f7567682062616c616e63650000000000000000000000000000600082015250565b60006115d460128361112e565b91506115df8261159e565b602082019050919050565b60006020820190508181036000830152611603816115c7565b9050919050565b7f6e6f7420656e6f75676820616c6c6f77616e6365000000000000000000000000600082015250565b600061164060148361112e565b915061164b8261160a565b602082019050919050565b6000602082019050818103600083015261166f81611633565b9050919050565b7f4e487b7100000000000000000000000000000000000000000000000000000000600052601160045260246000fd5b60006116b082611241565b91506116bb83611241565b9250828210156116ce576116cd611676565b5b828203905092915050565b60006116e482611241565b91506116ef83611241565b9250827fffffffffffffffffffffffffffffffffffffffffffffffffffffffffffffffff0382111561172457611723611676565b5b828201905092915050565b600060608201905061174460008301866112ed565b61175160208301856112ed565b61175e6040830184611317565b949350505050565b61176f816112b7565b811461177a57600080fd5b50565b60008151905061178c81611766565b92915050565b6000602082840312156117a8576117a76111de565b5b60006117b68482850161177d565b91505092915050565b7f4f776e61626c653a2063616c6c6572206973206e6f7420746865206f776e6572600082015250565b60006117f560208361112e565b9150611800826117bf565b602082019050919050565b60006020820190508181036000830152611824816117e8565b9050919050565b7f4f776e61626c653a206e6577206f776e657220697320746865207a65726f206160008201527f6464726573730000000000000000000000000000000000000000000000000000602082015250565b600061188760268361112e565b91506118928261182b565b604082019050919050565b600060208201905081810360008301526118b68161187a565b905091905056fea2646970667358221220c836f93ede2cf8af79c9bbbd07467bb79f76683f8fdc400698eec6f9156f799964736f6c634300080c0033",
  "immutableReferences": {},
  "source": "// SPDX-License-Identifier: UNLICENSED\r\npragma solidity >=0.7.0 <0.9.0;\r\n\r\nimport \"./IBEP20.sol\";\r\nimport \"./BTokenInterfaces.sol\";\r\n\r\nimport \"@openzeppelin/contracts/access/Ownable.sol\";\r\n\r\ncontract BToken is Ownable, BTokenInterface {\r\n    constructor(\r\n        address underlyingContract_,\r\n        string memory name_,\r\n        string memory symbol_,\r\n        uint8 decimal_\r\n    ) {\r\n        underlyingContract = underlyingContract_;\r\n        name = name_;\r\n        symbol = symbol_;\r\n        decimals = decimal_;\r\n    }\r\n\r\n    /** Admin functions */\r\n\r\n    function changeUnderlyingContract(address newUnderlyingContract)\r\n        external\r\n        onlyOwner\r\n    {\r\n        underlyingContract = newUnderlyingContract;\r\n    }\r\n\r\n    /** Users functions */\r\n\r\n    function transfer(address dst, uint256 amount)\r\n        public\r\n        override\r\n        returns (bool success)\r\n    {\r\n        return transferFrom(msg.sender, dst, amount);\r\n    }\r\n\r\n    function transferFrom(\r\n        address src,\r\n        address dst,\r\n        uint256 amount\r\n    ) public override returns (bool success) {\r\n        require(amount > 0, \"amount must be greater than 0\");\r\n        require(src != dst, \"cannot transfer to self\");\r\n\r\n        uint256 balance = balanceOf(src);\r\n        require(balance >= amount, \"not enough balance\");\r\n\r\n        uint256 allowances = transferAllowances[src][msg.sender];\r\n        require(allowances >= amount, \"not enough allowance\");\r\n\r\n        accountTokens[src] -= amount;\r\n        accountTokens[dst] += amount;\r\n        transferAllowances[src][msg.sender] -= amount;\r\n\r\n        emit Transfer(src, dst, amount);\r\n        return true;\r\n    }\r\n\r\n    /**\r\n     * @notice Get the token balance of the `owner`\r\n     * @param owner The address of the account to query\r\n     * @return The number of tokens owned by `owner`\r\n     */\r\n    function balanceOf(address owner) public view override returns (uint256) {\r\n        return accountTokens[owner];\r\n    }\r\n\r\n    /**\r\n     * @notice Approve `spender` to transfer up to `amount` from `src`\r\n     * @dev This will overwrite the approval amount for `spender`\r\n     *  and is subject to issues noted [here](https://eips.ethereum.org/EIPS/eip-20#approve)\r\n     * @param spender The address of the account which may transfer tokens\r\n     * @param amount The number of tokens that are approved (-1 means infinite)\r\n     * @return Whether or not the approval succeeded\r\n     */\r\n    function approve(address spender, uint256 amount)\r\n        external\r\n        override\r\n        returns (bool)\r\n    {\r\n        address src = msg.sender;\r\n        transferAllowances[src][spender] = amount;\r\n        emit Approval(src, spender, amount);\r\n        return true;\r\n    }\r\n\r\n    /**\r\n     * @notice Get the current allowance from `owner` for `spender`\r\n     * @param owner The address of the account which owns the tokens to be spent\r\n     * @param spender The address of the account which may transfer tokens\r\n     * @return The number of tokens allowed to be spent (-1 means infinite)\r\n     */\r\n    function allowance(address owner, address spender)\r\n        external\r\n        view\r\n        override\r\n        returns (uint256)\r\n    {\r\n        return transferAllowances[owner][spender];\r\n    }\r\n\r\n    /**\r\n     * @notice Mint tokens for the minter\r\n     */\r\n    function mint(uint256 amount) public override returns (bool) {\r\n        require(amount > 0, \"amount must be greater than 0\");\r\n\r\n        IBEP20 tokenContract = IBEP20(underlyingContract);\r\n\r\n        bool success = tokenContract.transferFrom(\r\n            msg.sender,\r\n            address(this),\r\n            amount\r\n        );\r\n\r\n        if (success) {\r\n            return false;\r\n        }\r\n\r\n        accountTokens[msg.sender] += amount;\r\n        emit Mint(msg.sender, amount);\r\n        return true;\r\n    }\r\n\r\n    /**\r\n     * @notice Burn tokens for the minter\r\n     */\r\n    function burn(uint256 amount) public override returns (bool) {\r\n        require(amount > 0, \"amount must be greater than 0\");\r\n\r\n        IBEP20 tokenContract = IBEP20(underlyingContract);\r\n\r\n        bool success = tokenContract.transferFrom(\r\n            address(this),\r\n            msg.sender,\r\n            amount\r\n        );\r\n\r\n        if (success) {\r\n            return false;\r\n        }\r\n\r\n        accountTokens[msg.sender] -= amount;\r\n        return true;\r\n    }\r\n}\r\n",
  "sourcePath": "C:\\Lab\\Solidity\\BabyLoans-Protocol\\contracts\\BToken.sol",
  "compiler": {
    "name": "solc",
    "version": "0.8.12+commit.f00d7308.Emscripten.clang"
  },
  "schemaVersion": "3.4.7",
  "updatedAt": "2022-06-27T17:19:16.443Z",
  "devdoc": {
    "kind": "dev",
    "methods": {
      "allowance(address,address)": {
        "params": {
          "owner": "The address of the account which owns the tokens to be spent",
          "spender": "The address of the account which may transfer tokens"
        },
        "returns": {
          "_0": "The number of tokens allowed to be spent (-1 means infinite)"
        }
      },
      "approve(address,uint256)": {
        "details": "This will overwrite the approval amount for `spender`  and is subject to issues noted [here](https://eips.ethereum.org/EIPS/eip-20#approve)",
        "params": {
          "amount": "The number of tokens that are approved (-1 means infinite)",
          "spender": "The address of the account which may transfer tokens"
        },
        "returns": {
          "_0": "Whether or not the approval succeeded"
        }
      },
      "balanceOf(address)": {
        "params": {
          "owner": "The address of the account to query"
        },
        "returns": {
          "_0": "The number of tokens owned by `owner`"
        }
      },
      "owner()": {
        "details": "Returns the address of the current owner."
      },
      "renounceOwnership()": {
        "details": "Leaves the contract without owner. It will not be possible to call `onlyOwner` functions anymore. Can only be called by the current owner. NOTE: Renouncing ownership will leave the contract without an owner, thereby removing any functionality that is only available to the owner."
      },
      "transferOwnership(address)": {
        "details": "Transfers ownership of the contract to a new account (`newOwner`). Can only be called by the current owner."
      }
    },
    "version": 1
  },
  "userdoc": {
    "events": {
      "Approval(address,address,uint256)": {
        "notice": "EIP20 Approval event"
      },
      "Borrow(address,uint256,uint256,uint256)": {
        "notice": "Event emitted when underlying is borrowed"
      },
      "Mint(address,uint256)": {
        "notice": "EIP20 Mint event"
      },
      "Mint(address,uint256,uint256)": {
        "notice": "Event emitted when tokens are minted"
      },
      "Transfer(address,address,uint256)": {
        "notice": "EIP20 Transfer event"
      }
    },
    "kind": "user",
    "methods": {
      "accrualBlockNumber()": {
        "notice": "Block number that interest was last accrued at"
      },
      "allowance(address,address)": {
        "notice": "Get the current allowance from `owner` for `spender`"
      },
      "approve(address,uint256)": {
        "notice": "Approve `spender` to transfer up to `amount` from `src`"
      },
      "balanceOf(address)": {
        "notice": "Get the token balance of the `owner`"
      },
      "burn(uint256)": {
        "notice": "Burn tokens for the minter"
      },
      "changeUnderlyingContract(address)": {
        "notice": "Admin functions "
      },
      "decimals()": {
        "notice": "EIP-20 token decimals for this token"
      },
      "mint(uint256)": {
        "notice": "Mint tokens for the minter"
      },
      "name()": {
        "notice": "EIP-20 token name for this token"
      },
      "symbol()": {
        "notice": "EIP-20 token symbol for this token"
      },
      "totalBorrows()": {
        "notice": "Total amount of outstanding borrows of the underlying in this market"
      },
      "totalReserves()": {
        "notice": "Total amount of reserves of the underlying held in this market"
      },
      "totalSupply()": {
        "notice": "Total number of tokens in circulation"
      },
      "transfer(address,uint256)": {
        "notice": "Users functions "
      },
      "underlyingContract()": {
        "notice": "Underlyint contract address"
      }
    },
    "version": 1
  }
}