{
  "contractName": "StableCoin",
  "abi": [
    {
      "inputs": [
        {
          "internalType": "string",
          "name": "name_",
          "type": "string"
        },
        {
          "internalType": "string",
          "name": "symbol_",
          "type": "string"
        },
        {
          "internalType": "uint8",
          "name": "decimals_",
          "type": "uint8"
        },
        {
          "internalType": "uint256",
          "name": "totalSupply_",
          "type": "uint256"
        }
      ],
      "stateMutability": "nonpayable",
      "type": "constructor"
    },
    {
      "anonymous": false,
      "inputs": [
        {
          "indexed": true,
          "internalType": "address",
          "name": "owner",
          "type": "address"
        },
        {
          "indexed": true,
          "internalType": "address",
          "name": "spender",
          "type": "address"
        },
        {
          "indexed": false,
          "internalType": "uint256",
          "name": "value",
          "type": "uint256"
        }
      ],
      "name": "Approval",
      "type": "event"
    },
    {
      "anonymous": false,
      "inputs": [
        {
          "indexed": true,
          "internalType": "address",
          "name": "from",
          "type": "address"
        },
        {
          "indexed": true,
          "internalType": "address",
          "name": "to",
          "type": "address"
        },
        {
          "indexed": false,
          "internalType": "uint256",
          "name": "value",
          "type": "uint256"
        }
      ],
      "name": "Transfer",
      "type": "event"
    },
    {
      "inputs": [],
      "name": "_decimals",
      "outputs": [
        {
          "internalType": "uint8",
          "name": "",
          "type": "uint8"
        }
      ],
      "stateMutability": "view",
      "type": "function",
      "constant": true
    },
    {
      "inputs": [],
      "name": "_name",
      "outputs": [
        {
          "internalType": "string",
          "name": "",
          "type": "string"
        }
      ],
      "stateMutability": "view",
      "type": "function",
      "constant": true
    },
    {
      "inputs": [],
      "name": "_symbol",
      "outputs": [
        {
          "internalType": "string",
          "name": "",
          "type": "string"
        }
      ],
      "stateMutability": "view",
      "type": "function",
      "constant": true
    },
    {
      "inputs": [],
      "name": "decimals",
      "outputs": [
        {
          "internalType": "uint8",
          "name": "",
          "type": "uint8"
        }
      ],
      "stateMutability": "view",
      "type": "function",
      "constant": true
    },
    {
      "inputs": [],
      "name": "symbol",
      "outputs": [
        {
          "internalType": "string",
          "name": "",
          "type": "string"
        }
      ],
      "stateMutability": "view",
      "type": "function",
      "constant": true
    },
    {
      "inputs": [],
      "name": "name",
      "outputs": [
        {
          "internalType": "string",
          "name": "",
          "type": "string"
        }
      ],
      "stateMutability": "view",
      "type": "function",
      "constant": true
    },
    {
      "inputs": [],
      "name": "totalSupply",
      "outputs": [
        {
          "internalType": "uint256",
          "name": "",
          "type": "uint256"
        }
      ],
      "stateMutability": "view",
      "type": "function",
      "constant": true
    },
    {
      "inputs": [
        {
          "internalType": "address",
          "name": "account",
          "type": "address"
        }
      ],
      "name": "balanceOf",
      "outputs": [
        {
          "internalType": "uint256",
          "name": "",
          "type": "uint256"
        }
      ],
      "stateMutability": "view",
      "type": "function",
      "constant": true
    },
    {
      "inputs": [
        {
          "internalType": "address",
          "name": "recipient",
          "type": "address"
        },
        {
          "internalType": "uint256",
          "name": "amount",
          "type": "uint256"
        }
      ],
      "name": "transfer",
      "outputs": [
        {
          "internalType": "bool",
          "name": "",
          "type": "bool"
        }
      ],
      "stateMutability": "nonpayable",
      "type": "function"
    },
    {
      "inputs": [
        {
          "internalType": "address",
          "name": "owner",
          "type": "address"
        },
        {
          "internalType": "address",
          "name": "spender",
          "type": "address"
        }
      ],
      "name": "allowance",
      "outputs": [
        {
          "internalType": "uint256",
          "name": "",
          "type": "uint256"
        }
      ],
      "stateMutability": "view",
      "type": "function",
      "constant": true
    },
    {
      "inputs": [
        {
          "internalType": "address",
          "name": "spender",
          "type": "address"
        },
        {
          "internalType": "uint256",
          "name": "amount",
          "type": "uint256"
        }
      ],
      "name": "approve",
      "outputs": [
        {
          "internalType": "bool",
          "name": "",
          "type": "bool"
        }
      ],
      "stateMutability": "nonpayable",
      "type": "function"
    },
    {
      "inputs": [
        {
          "internalType": "address",
          "name": "sender",
          "type": "address"
        },
        {
          "internalType": "address",
          "name": "recipient",
          "type": "address"
        },
        {
          "internalType": "uint256",
          "name": "amount",
          "type": "uint256"
        }
      ],
      "name": "transferFrom",
      "outputs": [
        {
          "internalType": "bool",
          "name": "",
          "type": "bool"
        }
      ],
      "stateMutability": "nonpayable",
      "type": "function"
    }
  ],
  "bytecode": "0x60806040523480156200001157600080fd5b50604051620016ca380380620016ca83398181016040528101906200003791906200040a565b83600590805190602001906200004f92919062000144565b5082600490805190602001906200006892919062000144565b5081600360006101000a81548160ff021916908360ff160217905550806002819055506002546000803373ffffffffffffffffffffffffffffffffffffffff1673ffffffffffffffffffffffffffffffffffffffff168152602001908152602001600020819055503373ffffffffffffffffffffffffffffffffffffffff16600073ffffffffffffffffffffffffffffffffffffffff167fddf252ad1be2c89b69c2b068fc378daa952ba7f163c4a11628f55a4df523b3ef600254604051620001329190620004cb565b60405180910390a3505050506200054d565b828054620001529062000517565b90600052602060002090601f016020900481019282620001765760008555620001c2565b82601f106200019157805160ff1916838001178555620001c2565b82800160010185558215620001c2579182015b82811115620001c1578251825591602001919060010190620001a4565b5b509050620001d19190620001d5565b5090565b5b80821115620001f0576000816000905550600101620001d6565b5090565b6000604051905090565b600080fd5b600080fd5b600080fd5b600080fd5b6000601f19601f8301169050919050565b7f4e487b7100000000000000000000000000000000000000000000000000000000600052604160045260246000fd5b6200025d8262000212565b810181811067ffffffffffffffff821117156200027f576200027e62000223565b5b80604052505050565b600062000294620001f4565b9050620002a2828262000252565b919050565b600067ffffffffffffffff821115620002c557620002c462000223565b5b620002d08262000212565b9050602081019050919050565b60005b83811015620002fd578082015181840152602081019050620002e0565b838111156200030d576000848401525b50505050565b60006200032a6200032484620002a7565b62000288565b9050828152602081018484840111156200034957620003486200020d565b5b62000356848285620002dd565b509392505050565b600082601f83011262000376576200037562000208565b5b81516200038884826020860162000313565b91505092915050565b600060ff82169050919050565b620003a98162000391565b8114620003b557600080fd5b50565b600081519050620003c9816200039e565b92915050565b6000819050919050565b620003e481620003cf565b8114620003f057600080fd5b50565b6000815190506200040481620003d9565b92915050565b60008060008060808587031215620004275762000426620001fe565b5b600085015167ffffffffffffffff81111562000448576200044762000203565b5b62000456878288016200035e565b945050602085015167ffffffffffffffff8111156200047a576200047962000203565b5b62000488878288016200035e565b93505060406200049b87828801620003b8565b9250506060620004ae87828801620003f3565b91505092959194509250565b620004c581620003cf565b82525050565b6000602082019050620004e26000830184620004ba565b92915050565b7f4e487b7100000000000000000000000000000000000000000000000000000000600052602260045260246000fd5b600060028204905060018216806200053057607f821691505b60208210811415620005475762000546620004e8565b5b50919050565b61116d806200055d6000396000f3fe608060405234801561001057600080fd5b50600436106100d1576000357c01000000000000000000000000000000000000000000000000000000009004806370a082311161008e57806370a08231146101ae57806395d89b41146101de578063a9059cbb146101fc578063b09f12661461022c578063d28d88521461024a578063dd62ed3e14610268576100d1565b806306fdde03146100d6578063095ea7b3146100f457806318160ddd1461012457806323b872dd14610142578063313ce5671461017257806332424aa314610190575b600080fd5b6100de610298565b6040516100eb9190610b83565b60405180910390f35b61010e60048036038101906101099190610c3e565b61032a565b60405161011b9190610c99565b60405180910390f35b61012c610341565b6040516101399190610cc3565b60405180910390f35b61015c60048036038101906101579190610cde565b61034b565b6040516101699190610c99565b60405180910390f35b61017a6103ff565b6040516101879190610d4d565b60405180910390f35b610198610416565b6040516101a59190610d4d565b60405180910390f35b6101c860048036038101906101c39190610d68565b610429565b6040516101d59190610cc3565b60405180910390f35b6101e6610471565b6040516101f39190610b83565b60405180910390f35b61021660048036038101906102119190610c3e565b610503565b6040516102239190610c99565b60405180910390f35b61023461051a565b6040516102419190610b83565b60405180910390f35b6102526105a8565b60405161025f9190610b83565b60405180910390f35b610282600480360381019061027d9190610d95565b610636565b60405161028f9190610cc3565b60405180910390f35b6060600580546102a790610e04565b80601f01602080910402602001604051908101604052809291908181526020018280546102d390610e04565b80156103205780601f106102f557610100808354040283529160200191610320565b820191906000526020600020905b81548152906001019060200180831161030357829003601f168201915b5050505050905090565b60006103373384846106bd565b6001905092915050565b6000600254905090565b6000610358848484610888565b6103f4843384600160008973ffffffffffffffffffffffffffffffffffffffff1673ffffffffffffffffffffffffffffffffffffffff16815260200190815260200160002060003373ffffffffffffffffffffffffffffffffffffffff1673ffffffffffffffffffffffffffffffffffffffff16815260200190815260200160002060008282546103e99190610e65565b9250508190556106bd565b600190509392505050565b6000600360009054906101000a900460ff16905090565b600360009054906101000a900460ff1681565b60008060008373ffffffffffffffffffffffffffffffffffffffff1673ffffffffffffffffffffffffffffffffffffffff168152602001908152602001600020549050919050565b60606004805461048090610e04565b80601f01602080910402602001604051908101604052809291908181526020018280546104ac90610e04565b80156104f95780601f106104ce576101008083540402835291602001916104f9565b820191906000526020600020905b8154815290600101906020018083116104dc57829003601f168201915b5050505050905090565b6000610510338484610888565b6001905092915050565b6004805461052790610e04565b80601f016020809104026020016040519081016040528092919081815260200182805461055390610e04565b80156105a05780601f10610575576101008083540402835291602001916105a0565b820191906000526020600020905b81548152906001019060200180831161058357829003601f168201915b505050505081565b600580546105b590610e04565b80601f01602080910402602001604051908101604052809291908181526020018280546105e190610e04565b801561062e5780601f106106035761010080835404028352916020019161062e565b820191906000526020600020905b81548152906001019060200180831161061157829003601f168201915b505050505081565b6000600160008473ffffffffffffffffffffffffffffffffffffffff1673ffffffffffffffffffffffffffffffffffffffff16815260200190815260200160002060008373ffffffffffffffffffffffffffffffffffffffff1673ffffffffffffffffffffffffffffffffffffffff16815260200190815260200160002054905092915050565b600073ffffffffffffffffffffffffffffffffffffffff168373ffffffffffffffffffffffffffffffffffffffff16141561072d576040517f08c379a000000000000000000000000000000000000000000000000000000000815260040161072490610f0b565b60405180910390fd5b600073ffffffffffffffffffffffffffffffffffffffff168273ffffffffffffffffffffffffffffffffffffffff16141561079d576040517f08c379a000000000000000000000000000000000000000000000000000000000815260040161079490610f9d565b60405180910390fd5b80600160008573ffffffffffffffffffffffffffffffffffffffff1673ffffffffffffffffffffffffffffffffffffffff16815260200190815260200160002060008473ffffffffffffffffffffffffffffffffffffffff1673ffffffffffffffffffffffffffffffffffffffff168152602001908152602001600020819055508173ffffffffffffffffffffffffffffffffffffffff168373ffffffffffffffffffffffffffffffffffffffff167f8c5be1e5ebec7d5bd14f71427d1e84f3dd0314c0f7b2291e5b200ac8c7c3b9258360405161087b9190610cc3565b60405180910390a3505050565b600073ffffffffffffffffffffffffffffffffffffffff168373ffffffffffffffffffffffffffffffffffffffff1614156108f8576040517f08c379a00000000000000000000000000000000000000000000000000000000081526004016108ef9061102f565b60405180910390fd5b600073ffffffffffffffffffffffffffffffffffffffff168273ffffffffffffffffffffffffffffffffffffffff161415610968576040517f08c379a000000000000000000000000000000000000000000000000000000000815260040161095f906110c1565b60405180910390fd5b806000808573ffffffffffffffffffffffffffffffffffffffff1673ffffffffffffffffffffffffffffffffffffffff168152602001908152602001600020546109b29190610e65565b6000808573ffffffffffffffffffffffffffffffffffffffff1673ffffffffffffffffffffffffffffffffffffffff16815260200190815260200160002081905550806000808473ffffffffffffffffffffffffffffffffffffffff1673ffffffffffffffffffffffffffffffffffffffff16815260200190815260200160002054610a3e91906110e1565b6000808473ffffffffffffffffffffffffffffffffffffffff1673ffffffffffffffffffffffffffffffffffffffff168152602001908152602001600020819055508173ffffffffffffffffffffffffffffffffffffffff168373ffffffffffffffffffffffffffffffffffffffff167fddf252ad1be2c89b69c2b068fc378daa952ba7f163c4a11628f55a4df523b3ef83604051610add9190610cc3565b60405180910390a3505050565b600081519050919050565b600082825260208201905092915050565b60005b83811015610b24578082015181840152602081019050610b09565b83811115610b33576000848401525b50505050565b6000601f19601f8301169050919050565b6000610b5582610aea565b610b5f8185610af5565b9350610b6f818560208601610b06565b610b7881610b39565b840191505092915050565b60006020820190508181036000830152610b9d8184610b4a565b905092915050565b600080fd5b600073ffffffffffffffffffffffffffffffffffffffff82169050919050565b6000610bd582610baa565b9050919050565b610be581610bca565b8114610bf057600080fd5b50565b600081359050610c0281610bdc565b92915050565b6000819050919050565b610c1b81610c08565b8114610c2657600080fd5b50565b600081359050610c3881610c12565b92915050565b60008060408385031215610c5557610c54610ba5565b5b6000610c6385828601610bf3565b9250506020610c7485828601610c29565b9150509250929050565b60008115159050919050565b610c9381610c7e565b82525050565b6000602082019050610cae6000830184610c8a565b92915050565b610cbd81610c08565b82525050565b6000602082019050610cd86000830184610cb4565b92915050565b600080600060608486031215610cf757610cf6610ba5565b5b6000610d0586828701610bf3565b9350506020610d1686828701610bf3565b9250506040610d2786828701610c29565b9150509250925092565b600060ff82169050919050565b610d4781610d31565b82525050565b6000602082019050610d626000830184610d3e565b92915050565b600060208284031215610d7e57610d7d610ba5565b5b6000610d8c84828501610bf3565b91505092915050565b60008060408385031215610dac57610dab610ba5565b5b6000610dba85828601610bf3565b9250506020610dcb85828601610bf3565b9150509250929050565b7f4e487b7100000000000000000000000000000000000000000000000000000000600052602260045260246000fd5b60006002820490506001821680610e1c57607f821691505b60208210811415610e3057610e2f610dd5565b5b50919050565b7f4e487b7100000000000000000000000000000000000000000000000000000000600052601160045260246000fd5b6000610e7082610c08565b9150610e7b83610c08565b925082821015610e8e57610e8d610e36565b5b828203905092915050565b7f42455032303a20617070726f76652066726f6d20746865207a65726f2061646460008201527f7265737300000000000000000000000000000000000000000000000000000000602082015250565b6000610ef5602483610af5565b9150610f0082610e99565b604082019050919050565b60006020820190508181036000830152610f2481610ee8565b9050919050565b7f42455032303a20617070726f766520746f20746865207a65726f20616464726560008201527f7373000000000000000000000000000000000000000000000000000000000000602082015250565b6000610f87602283610af5565b9150610f9282610f2b565b604082019050919050565b60006020820190508181036000830152610fb681610f7a565b9050919050565b7f42455032303a207472616e736665722066726f6d20746865207a65726f20616460008201527f6472657373000000000000000000000000000000000000000000000000000000602082015250565b6000611019602583610af5565b915061102482610fbd565b604082019050919050565b600060208201905081810360008301526110488161100c565b9050919050565b7f42455032303a207472616e7366657220746f20746865207a65726f206164647260008201527f6573730000000000000000000000000000000000000000000000000000000000602082015250565b60006110ab602383610af5565b91506110b68261104f565b604082019050919050565b600060208201905081810360008301526110da8161109e565b9050919050565b60006110ec82610c08565b91506110f783610c08565b9250827fffffffffffffffffffffffffffffffffffffffffffffffffffffffffffffffff0382111561112c5761112b610e36565b5b82820190509291505056fea2646970667358221220bcf6e212a7e4648650320ffcb084db5bd72670f7187b56f2a683b999710ad1d264736f6c634300080c0033",
  "immutableReferences": {},
  "source": "// SPDX-License-Identifier: UNLICENSED\r\npragma solidity >=0.7.0 <0.9.0;\r\n\r\nimport \"../IBEP20.sol\";\r\n\r\ncontract StableCoin is IBEP20 {\r\n    mapping(address => uint256) private _balances;\r\n    mapping(address => mapping(address => uint256)) private _allowances;\r\n\r\n    uint256 private _totalSupply;\r\n    uint8 public _decimals;\r\n    string public _symbol;\r\n    string public _name;\r\n\r\n    constructor(\r\n        string memory name_,\r\n        string memory symbol_,\r\n        uint8 decimals_,\r\n        uint256 totalSupply_\r\n    ) {\r\n        _name = name_;\r\n        _symbol = symbol_;\r\n        _decimals = decimals_;\r\n        _totalSupply = totalSupply_;\r\n        _balances[msg.sender] = _totalSupply;\r\n\r\n        emit Transfer(address(0), msg.sender, _totalSupply);\r\n    }\r\n\r\n    /**\r\n     * @dev Returns the token decimals.\r\n     */\r\n    function decimals() external view returns (uint8) {\r\n        return _decimals;\r\n    }\r\n\r\n    /**\r\n     * @dev Returns the token symbol.\r\n     */\r\n    function symbol() external view returns (string memory) {\r\n        return _symbol;\r\n    }\r\n\r\n    /**\r\n     * @dev Returns the token name.\r\n     */\r\n    function name() external view returns (string memory) {\r\n        return _name;\r\n    }\r\n\r\n    /**\r\n     * @dev See {BEP20-totalSupply}.\r\n     */\r\n    function totalSupply() external view returns (uint256) {\r\n        return _totalSupply;\r\n    }\r\n\r\n    /**\r\n     * @dev See {BEP20-balanceOf}.\r\n     */\r\n    function balanceOf(address account) external view returns (uint256) {\r\n        return _balances[account];\r\n    }\r\n\r\n    /**\r\n     * @dev See {BEP20-transfer}.\r\n     *\r\n     * Requirements:\r\n     *\r\n     * - `recipient` cannot be the zero address.\r\n     * - the caller must have a balance of at least `amount`.\r\n     */\r\n    function transfer(address recipient, uint256 amount)\r\n        external\r\n        returns (bool)\r\n    {\r\n        _transfer(msg.sender, recipient, amount);\r\n        return true;\r\n    }\r\n\r\n    /**\r\n     * @dev See {BEP20-allowance}.\r\n     */\r\n    function allowance(address owner, address spender)\r\n        external\r\n        view\r\n        returns (uint256)\r\n    {\r\n        return _allowances[owner][spender];\r\n    }\r\n\r\n    /**\r\n     * @dev See {BEP20-approve}.\r\n     *\r\n     * Requirements:\r\n     *\r\n     * - `spender` cannot be the zero address.\r\n     */\r\n    function approve(address spender, uint256 amount) external returns (bool) {\r\n        _approve(msg.sender, spender, amount);\r\n        return true;\r\n    }\r\n\r\n    /**\r\n     * @dev See {BEP20-transferFrom}.\r\n     *\r\n     * Emits an {Approval} event indicating the updated allowance. This is not\r\n     * required by the EIP. See the note at the beginning of {BEP20};\r\n     *\r\n     * Requirements:\r\n     * - `sender` and `recipient` cannot be the zero address.\r\n     * - `sender` must have a balance of at least `amount`.\r\n     * - the caller must have allowance for `sender`'s tokens of at least\r\n     * `amount`.\r\n     */\r\n    function transferFrom(\r\n        address sender,\r\n        address recipient,\r\n        uint256 amount\r\n    ) external returns (bool) {\r\n        _transfer(sender, recipient, amount);\r\n        _approve(sender, msg.sender, _allowances[sender][msg.sender] -= amount);\r\n        return true;\r\n    }\r\n\r\n    /**\r\n     * @dev Moves tokens `amount` from `sender` to `recipient`.\r\n     *\r\n     * This is internal function is equivalent to {transfer}, and can be used to\r\n     * e.g. implement automatic token fees, slashing mechanisms, etc.\r\n     *\r\n     * Emits a {Transfer} event.\r\n     *\r\n     * Requirements:\r\n     *\r\n     * - `sender` cannot be the zero address.\r\n     * - `recipient` cannot be the zero address.\r\n     * - `sender` must have a balance of at least `amount`.\r\n     */\r\n    function _transfer(\r\n        address sender,\r\n        address recipient,\r\n        uint256 amount\r\n    ) internal {\r\n        require(sender != address(0), \"BEP20: transfer from the zero address\");\r\n        require(recipient != address(0), \"BEP20: transfer to the zero address\");\r\n\r\n        _balances[sender] = _balances[sender] - amount;\r\n        _balances[recipient] = _balances[recipient] + amount;\r\n        emit Transfer(sender, recipient, amount);\r\n    }\r\n\r\n    /**\r\n     * @dev Sets `amount` as the allowance of `spender` over the `owner`s tokens.\r\n     *\r\n     * This is internal function is equivalent to `approve`, and can be used to\r\n     * e.g. set automatic allowances for certain subsystems, etc.\r\n     *\r\n     * Emits an {Approval} event.\r\n     *\r\n     * Requirements:\r\n     *\r\n     * - `owner` cannot be the zero address.\r\n     * - `spender` cannot be the zero address.\r\n     */\r\n    function _approve(\r\n        address owner,\r\n        address spender,\r\n        uint256 amount\r\n    ) internal {\r\n        require(owner != address(0), \"BEP20: approve from the zero address\");\r\n        require(spender != address(0), \"BEP20: approve to the zero address\");\r\n\r\n        _allowances[owner][spender] = amount;\r\n        emit Approval(owner, spender, amount);\r\n    }\r\n}\r\n",
  "sourcePath": "C:\\Lab\\Solidity\\BabyLoans-Protocol\\contracts\\mock\\StableCoin.sol",
  "compiler": {
    "name": "solc",
    "version": "0.8.12+commit.f00d7308.Emscripten.clang"
  },
  "schemaVersion": "3.4.7",
  "updatedAt": "2022-06-27T17:19:27.694Z",
  "networkType": "ethereum",
  "devdoc": {
    "kind": "dev",
    "methods": {
      "allowance(address,address)": {
        "details": "See {BEP20-allowance}."
      },
      "approve(address,uint256)": {
        "details": "See {BEP20-approve}. Requirements: - `spender` cannot be the zero address."
      },
      "balanceOf(address)": {
        "details": "See {BEP20-balanceOf}."
      },
      "decimals()": {
        "details": "Returns the token decimals."
      },
      "name()": {
        "details": "Returns the token name."
      },
      "symbol()": {
        "details": "Returns the token symbol."
      },
      "totalSupply()": {
        "details": "See {BEP20-totalSupply}."
      },
      "transfer(address,uint256)": {
        "details": "See {BEP20-transfer}. Requirements: - `recipient` cannot be the zero address. - the caller must have a balance of at least `amount`."
      },
      "transferFrom(address,address,uint256)": {
        "details": "See {BEP20-transferFrom}. Emits an {Approval} event indicating the updated allowance. This is not required by the EIP. See the note at the beginning of {BEP20}; Requirements: - `sender` and `recipient` cannot be the zero address. - `sender` must have a balance of at least `amount`. - the caller must have allowance for `sender`'s tokens of at least `amount`."
      }
    },
    "version": 1
  },
  "userdoc": {
    "kind": "user",
    "methods": {},
    "version": 1
  }
}