{
  "contractName": "TokenLending",
  "abi": [
    {
      "inputs": [
        {
          "internalType": "contract BToken",
          "name": "bDaiToken",
          "type": "address"
        },
        {
          "internalType": "contract BToken",
          "name": "bUsdtToken",
          "type": "address"
        },
        {
          "internalType": "contract BToken",
          "name": "bUsdcToken",
          "type": "address"
        }
      ],
      "stateMutability": "nonpayable",
      "type": "constructor"
    },
    {
      "inputs": [
        {
          "internalType": "string",
          "name": "",
          "type": "string"
        }
      ],
      "name": "bTokens",
      "outputs": [
        {
          "internalType": "contract BToken",
          "name": "",
          "type": "address"
        }
      ],
      "stateMutability": "view",
      "type": "function"
    },
    {
      "inputs": [
        {
          "internalType": "string",
          "name": "",
          "type": "string"
        }
      ],
      "name": "existingBTokens",
      "outputs": [
        {
          "internalType": "bool",
          "name": "",
          "type": "bool"
        }
      ],
      "stateMutability": "view",
      "type": "function"
    },
    {
      "inputs": [
        {
          "internalType": "string",
          "name": "entry",
          "type": "string"
        },
        {
          "internalType": "uint256",
          "name": "amount",
          "type": "uint256"
        }
      ],
      "name": "mint",
      "outputs": [],
      "stateMutability": "nonpayable",
      "type": "function"
    },
    {
      "inputs": [
        {
          "internalType": "string",
          "name": "entry",
          "type": "string"
        },
        {
          "internalType": "uint256",
          "name": "amount",
          "type": "uint256"
        }
      ],
      "name": "redeem",
      "outputs": [],
      "stateMutability": "nonpayable",
      "type": "function"
    }
  ],
  "bytecode": "0x60806040523480156200001157600080fd5b5060405162000be638038062000be6833981810160405281019062000037919062000277565b82600060405162000048906200032e565b908152602001604051809103902060006101000a81548173ffffffffffffffffffffffffffffffffffffffff021916908373ffffffffffffffffffffffffffffffffffffffff160217905550816000604051620000a59062000395565b908152602001604051809103902060006101000a81548173ffffffffffffffffffffffffffffffffffffffff021916908373ffffffffffffffffffffffffffffffffffffffff1602179055508060006040516200010290620003fc565b908152602001604051809103902060006101000a81548173ffffffffffffffffffffffffffffffffffffffff021916908373ffffffffffffffffffffffffffffffffffffffff1602179055506001806040516200015f906200032e565b908152602001604051809103902060006101000a81548160ff021916908315150217905550600180604051620001959062000395565b908152602001604051809103902060006101000a81548160ff021916908315150217905550600180604051620001cb90620003fc565b908152602001604051809103902060006101000a81548160ff02191690831515021790555050505062000413565b600080fd5b600073ffffffffffffffffffffffffffffffffffffffff82169050919050565b60006200022b82620001fe565b9050919050565b60006200023f826200021e565b9050919050565b620002518162000232565b81146200025d57600080fd5b50565b600081519050620002718162000246565b92915050565b600080600060608486031215620002935762000292620001f9565b5b6000620002a38682870162000260565b9350506020620002b68682870162000260565b9250506040620002c98682870162000260565b9150509250925092565b600081905092915050565b7f4441490000000000000000000000000000000000000000000000000000000000600082015250565b600062000316600383620002d3565b91506200032382620002de565b600382019050919050565b60006200033b8262000307565b9150819050919050565b7f5553445400000000000000000000000000000000000000000000000000000000600082015250565b60006200037d600483620002d3565b91506200038a8262000345565b600482019050919050565b6000620003a2826200036e565b9150819050919050565b7f5553444300000000000000000000000000000000000000000000000000000000600082015250565b6000620003e4600483620002d3565b9150620003f182620003ac565b600482019050919050565b60006200040982620003d5565b9150819050919050565b6107c380620004236000396000f3fe608060405234801561001057600080fd5b5060043610610069576000357c010000000000000000000000000000000000000000000000000000000090048063056b01ce1461006e578063517746491461008a578063b1b86b13146100ba578063cf805e60146100d6575b600080fd5b61008860048036038101906100839190610504565b610106565b005b6100a4600480360381019061009f9190610560565b6101bf565b6040516100b191906105c4565b60405180910390f35b6100d460048036038101906100cf9190610504565b6101f5565b005b6100f060048036038101906100eb9190610560565b6102ae565b6040516100fd919061065e565b60405180910390f35b6000610111836102f7565b905060008173ffffffffffffffffffffffffffffffffffffffff1663a0712d68846040518263ffffffff167c010000000000000000000000000000000000000000000000000000000002815260040161016a9190610688565b6020604051808303816000875af1158015610189573d6000803e3d6000fd5b505050506040513d601f19601f820116820180604052508101906101ad91906106cf565b9050806101b957600080fd5b50505050565b6001818051602081018201805184825260208301602085012081835280955050505050506000915054906101000a900460ff1681565b6000610200836102f7565b905060008173ffffffffffffffffffffffffffffffffffffffff166342966c68846040518263ffffffff167c01000000000000000000000000000000000000000000000000000000000281526004016102599190610688565b6020604051808303816000875af1158015610278573d6000803e3d6000fd5b505050506040513d601f19601f8201168201806040525081019061029c91906106cf565b9050806102a857600080fd5b50505050565b6000818051602081018201805184825260208301602085012081835280955050505050506000915054906101000a900473ffffffffffffffffffffffffffffffffffffffff1681565b60006001826040516103099190610776565b908152602001604051809103902060009054906101000a900460ff1661032e57600080fd5b60008260405161033e9190610776565b908152602001604051809103902060009054906101000a900473ffffffffffffffffffffffffffffffffffffffff169050919050565b6000604051905090565b600080fd5b600080fd5b600080fd5b600080fd5b6000601f19601f8301169050919050565b7f4e487b7100000000000000000000000000000000000000000000000000000000600052604160045260246000fd5b6103db82610392565b810181811067ffffffffffffffff821117156103fa576103f96103a3565b5b80604052505050565b600061040d610374565b905061041982826103d2565b919050565b600067ffffffffffffffff821115610439576104386103a3565b5b61044282610392565b9050602081019050919050565b82818337600083830152505050565b600061047161046c8461041e565b610403565b90508281526020810184848401111561048d5761048c61038d565b5b61049884828561044f565b509392505050565b600082601f8301126104b5576104b4610388565b5b81356104c584826020860161045e565b91505092915050565b6000819050919050565b6104e1816104ce565b81146104ec57600080fd5b50565b6000813590506104fe816104d8565b92915050565b6000806040838503121561051b5761051a61037e565b5b600083013567ffffffffffffffff81111561053957610538610383565b5b610545858286016104a0565b9250506020610556858286016104ef565b9150509250929050565b6000602082840312156105765761057561037e565b5b600082013567ffffffffffffffff81111561059457610593610383565b5b6105a0848285016104a0565b91505092915050565b60008115159050919050565b6105be816105a9565b82525050565b60006020820190506105d960008301846105b5565b92915050565b600073ffffffffffffffffffffffffffffffffffffffff82169050919050565b6000819050919050565b600061062461061f61061a846105df565b6105ff565b6105df565b9050919050565b600061063682610609565b9050919050565b60006106488261062b565b9050919050565b6106588161063d565b82525050565b6000602082019050610673600083018461064f565b92915050565b610682816104ce565b82525050565b600060208201905061069d6000830184610679565b92915050565b6106ac816105a9565b81146106b757600080fd5b50565b6000815190506106c9816106a3565b92915050565b6000602082840312156106e5576106e461037e565b5b60006106f3848285016106ba565b91505092915050565b600081519050919050565b600081905092915050565b60005b83811015610730578082015181840152602081019050610715565b8381111561073f576000848401525b50505050565b6000610750826106fc565b61075a8185610707565b935061076a818560208601610712565b80840191505092915050565b60006107828284610745565b91508190509291505056fea26469706673582212200a1e605a95713022d34fd14942f72f88f500f72be2c533e03e45cbcb3c0aef7c64736f6c634300080c0033",
  "immutableReferences": {},
  "source": "pragma solidity >=0.7.0 <0.9.0;\r\n\r\nimport \"./BToken.sol\";\r\n\r\ncontract TokenLending {\r\n    mapping(string => BToken) public bTokens;\r\n    mapping(string => bool) public existingBTokens;\r\n\r\n    constructor(\r\n        BToken bDaiToken,\r\n        BToken bUsdtToken,\r\n        BToken bUsdcToken\r\n    ) {\r\n        bTokens[\"DAI\"] = bDaiToken;\r\n        bTokens[\"USDT\"] = bUsdtToken;\r\n        bTokens[\"USDC\"] = bUsdcToken;\r\n\r\n        existingBTokens[\"DAI\"] = true;\r\n        existingBTokens[\"USDT\"] = true;\r\n        existingBTokens[\"USDC\"] = true;\r\n    }\r\n\r\n    /** Users functions */\r\n\r\n    /**\r\n     * @notice supply token to a given address\r\n     */\r\n    function mint(string memory entry, uint256 amount) external {\r\n        BToken bToken = getBToken(entry);\r\n\r\n        bool success = bToken.mint(amount);\r\n        require(success);\r\n    }\r\n\r\n    function redeem(string memory entry, uint256 amount) external {\r\n        BToken bToken = getBToken(entry);\r\n\r\n        bool success = bToken.burn(amount);\r\n        require(success);\r\n    }\r\n\r\n    /** Private function */\r\n    function getBToken(string memory entry) private view returns (BToken) {\r\n        require(existingBTokens[entry]);\r\n        return bTokens[entry];\r\n    }\r\n}\r\n",
  "sourcePath": "C:\\Lab\\Solidity\\BabyLoans-Protocol\\contracts\\TokenLending.sol",
  "compiler": {
    "name": "solc",
    "version": "0.8.12+commit.f00d7308.Emscripten.clang"
  },
  "schemaVersion": "3.4.7",
  "updatedAt": "2022-06-27T06:47:58.261Z",
  "devdoc": {
    "kind": "dev",
    "methods": {},
    "version": 1
  },
  "userdoc": {
    "kind": "user",
    "methods": {
      "mint(string,uint256)": {
        "notice": "supply token to a given address"
      }
    },
    "version": 1
  }
}