{
  "contractName": "TokenLending",
  "abi": [
    {
      "anonymous": false,
      "inputs": [
        {
          "indexed": true,
          "internalType": "address",
          "name": "previousOwner",
          "type": "address"
        },
        {
          "indexed": true,
          "internalType": "address",
          "name": "newOwner",
          "type": "address"
        }
      ],
      "name": "OwnershipTransferred",
      "type": "event"
    },
    {
      "inputs": [
        {
          "internalType": "string",
          "name": "",
          "type": "string"
        }
      ],
      "name": "bTokens",
      "outputs": [
        {
          "internalType": "contract BToken",
          "name": "",
          "type": "address"
        }
      ],
      "stateMutability": "view",
      "type": "function",
      "constant": true
    },
    {
      "inputs": [
        {
          "internalType": "string",
          "name": "",
          "type": "string"
        }
      ],
      "name": "existingBTokens",
      "outputs": [
        {
          "internalType": "bool",
          "name": "",
          "type": "bool"
        }
      ],
      "stateMutability": "view",
      "type": "function",
      "constant": true
    },
    {
      "inputs": [],
      "name": "owner",
      "outputs": [
        {
          "internalType": "address",
          "name": "",
          "type": "address"
        }
      ],
      "stateMutability": "view",
      "type": "function",
      "constant": true
    },
    {
      "inputs": [],
      "name": "renounceOwnership",
      "outputs": [],
      "stateMutability": "nonpayable",
      "type": "function"
    },
    {
      "inputs": [
        {
          "internalType": "address",
          "name": "newOwner",
          "type": "address"
        }
      ],
      "name": "transferOwnership",
      "outputs": [],
      "stateMutability": "nonpayable",
      "type": "function"
    },
    {
      "inputs": [
        {
          "internalType": "address",
          "name": "underlyingContract",
          "type": "address"
        },
        {
          "internalType": "string",
          "name": "name",
          "type": "string"
        },
        {
          "internalType": "string",
          "name": "symbol",
          "type": "string"
        },
        {
          "internalType": "uint8",
          "name": "decimals",
          "type": "uint8"
        }
      ],
      "name": "addBToken",
      "outputs": [],
      "stateMutability": "nonpayable",
      "type": "function"
    },
    {
      "inputs": [
        {
          "internalType": "string",
          "name": "entry",
          "type": "string"
        },
        {
          "internalType": "uint256",
          "name": "amount",
          "type": "uint256"
        }
      ],
      "name": "mint",
      "outputs": [],
      "stateMutability": "nonpayable",
      "type": "function"
    },
    {
      "inputs": [
        {
          "internalType": "string",
          "name": "entry",
          "type": "string"
        },
        {
          "internalType": "uint256",
          "name": "amount",
          "type": "uint256"
        }
      ],
      "name": "redeem",
      "outputs": [],
      "stateMutability": "nonpayable",
      "type": "function"
    }
  ],
  "bytecode": "0x608060405234801561001057600080fd5b5061003f61002b610044640100000000026401000000009004565b61004c640100000000026401000000009004565b610110565b600033905090565b60008060009054906101000a900473ffffffffffffffffffffffffffffffffffffffff169050816000806101000a81548173ffffffffffffffffffffffffffffffffffffffff021916908373ffffffffffffffffffffffffffffffffffffffff1602179055508173ffffffffffffffffffffffffffffffffffffffff168173ffffffffffffffffffffffffffffffffffffffff167f8be0079c531659141344cd1fd0a4f28419497f9722a3daafe3b4186f6b6457e060405160405180910390a35050565b612f5c8061011f6000396000f3fe60806040523480156200001157600080fd5b5060043610620000b1576000357c0100000000000000000000000000000000000000000000000000000000900480638da5cb5b11620000805780638da5cb5b1462000138578063b1b86b13146200015a578063cf805e60146200017a578063f2fde38b14620001b057620000b1565b8063056b01ce14620000b657806333614f5514620000d65780635177464914620000f6578063715018a6146200012c575b600080fd5b620000d46004803603810190620000ce919062000a03565b620001d0565b005b620000f46004803603810190620000ee919062000b0c565b62000293565b005b6200011460048036038101906200010e919062000bbc565b620003f8565b60405162000123919062000c2a565b60405180910390f35b620001366200042e565b005b62000142620004bf565b60405162000151919062000c58565b60405180910390f35b62000178600480360381019062000172919062000a03565b620004e8565b005b62000198600480360381019062000192919062000bbc565b620005a9565b604051620001a7919062000ce0565b60405180910390f35b620001ce6004803603810190620001c8919062000cfd565b620005f2565b005b6000620001dd83620006f6565b905060008173ffffffffffffffffffffffffffffffffffffffff166340c10f1933856040518363ffffffff167c01000000000000000000000000000000000000000000000000000000000281526004016200023a92919062000d40565b6020604051808303816000875af11580156200025a573d6000803e3d6000fd5b505050506040513d601f19601f8201168201806040525081019062000280919062000d9e565b9050806200028d57600080fd5b50505050565b6200029d62000778565b73ffffffffffffffffffffffffffffffffffffffff16620002bd620004bf565b73ffffffffffffffffffffffffffffffffffffffff161462000316576040517f08c379a00000000000000000000000000000000000000000000000000000000081526004016200030d9062000e31565b60405180910390fd5b6000848484846040516200032a9062000844565b62000339949392919062000ee6565b604051809103906000f08015801562000356573d6000803e3d6000fd5b509050806001856040516200036c919062000f83565b908152602001604051809103902060006101000a81548173ffffffffffffffffffffffffffffffffffffffff021916908373ffffffffffffffffffffffffffffffffffffffff1602179055506001600285604051620003cc919062000f83565b908152602001604051809103902060006101000a81548160ff0219169083151502179055505050505050565b6002818051602081018201805184825260208301602085012081835280955050505050506000915054906101000a900460ff1681565b6200043862000778565b73ffffffffffffffffffffffffffffffffffffffff1662000458620004bf565b73ffffffffffffffffffffffffffffffffffffffff1614620004b1576040517f08c379a0000000000000000000000000000000000000000000000000000000008152600401620004a89062000e31565b60405180910390fd5b620004bd600062000780565b565b60008060009054906101000a900473ffffffffffffffffffffffffffffffffffffffff16905090565b6000620004f583620006f6565b905060008173ffffffffffffffffffffffffffffffffffffffff166342966c68846040518263ffffffff167c010000000000000000000000000000000000000000000000000000000002815260040162000550919062000f9c565b6020604051808303816000875af115801562000570573d6000803e3d6000fd5b505050506040513d601f19601f8201168201806040525081019062000596919062000d9e565b905080620005a357600080fd5b50505050565b6001818051602081018201805184825260208301602085012081835280955050505050506000915054906101000a900473ffffffffffffffffffffffffffffffffffffffff1681565b620005fc62000778565b73ffffffffffffffffffffffffffffffffffffffff166200061c620004bf565b73ffffffffffffffffffffffffffffffffffffffff161462000675576040517f08c379a00000000000000000000000000000000000000000000000000000000081526004016200066c9062000e31565b60405180910390fd5b600073ffffffffffffffffffffffffffffffffffffffff168173ffffffffffffffffffffffffffffffffffffffff161415620006e8576040517f08c379a0000000000000000000000000000000000000000000000000000000008152600401620006df906200102f565b60405180910390fd5b620006f38162000780565b50565b60006002826040516200070a919062000f83565b908152602001604051809103902060009054906101000a900460ff166200073057600080fd5b60018260405162000742919062000f83565b908152602001604051809103902060009054906101000a900473ffffffffffffffffffffffffffffffffffffffff169050919050565b600033905090565b60008060009054906101000a900473ffffffffffffffffffffffffffffffffffffffff169050816000806101000a81548173ffffffffffffffffffffffffffffffffffffffff021916908373ffffffffffffffffffffffffffffffffffffffff1602179055508173ffffffffffffffffffffffffffffffffffffffff168173ffffffffffffffffffffffffffffffffffffffff167f8be0079c531659141344cd1fd0a4f28419497f9722a3daafe3b4186f6b6457e060405160405180910390a35050565b611ed5806200105283390190565b6000604051905090565b600080fd5b600080fd5b600080fd5b600080fd5b6000601f19601f8301169050919050565b7f4e487b7100000000000000000000000000000000000000000000000000000000600052604160045260246000fd5b620008bb8262000870565b810181811067ffffffffffffffff82111715620008dd57620008dc62000881565b5b80604052505050565b6000620008f262000852565b9050620009008282620008b0565b919050565b600067ffffffffffffffff82111562000923576200092262000881565b5b6200092e8262000870565b9050602081019050919050565b82818337600083830152505050565b6000620009616200095b8462000905565b620008e6565b90508281526020810184848401111562000980576200097f6200086b565b5b6200098d8482856200093b565b509392505050565b600082601f830112620009ad57620009ac62000866565b5b8135620009bf8482602086016200094a565b91505092915050565b6000819050919050565b620009dd81620009c8565b8114620009e957600080fd5b50565b600081359050620009fd81620009d2565b92915050565b6000806040838503121562000a1d5762000a1c6200085c565b5b600083013567ffffffffffffffff81111562000a3e5762000a3d62000861565b5b62000a4c8582860162000995565b925050602062000a5f85828601620009ec565b9150509250929050565b600073ffffffffffffffffffffffffffffffffffffffff82169050919050565b600062000a968262000a69565b9050919050565b62000aa88162000a89565b811462000ab457600080fd5b50565b60008135905062000ac88162000a9d565b92915050565b600060ff82169050919050565b62000ae68162000ace565b811462000af257600080fd5b50565b60008135905062000b068162000adb565b92915050565b6000806000806080858703121562000b295762000b286200085c565b5b600062000b398782880162000ab7565b945050602085013567ffffffffffffffff81111562000b5d5762000b5c62000861565b5b62000b6b8782880162000995565b935050604085013567ffffffffffffffff81111562000b8f5762000b8e62000861565b5b62000b9d8782880162000995565b925050606062000bb08782880162000af5565b91505092959194509250565b60006020828403121562000bd55762000bd46200085c565b5b600082013567ffffffffffffffff81111562000bf65762000bf562000861565b5b62000c048482850162000995565b91505092915050565b60008115159050919050565b62000c248162000c0d565b82525050565b600060208201905062000c41600083018462000c19565b92915050565b62000c528162000a89565b82525050565b600060208201905062000c6f600083018462000c47565b92915050565b6000819050919050565b600062000ca062000c9a62000c948462000a69565b62000c75565b62000a69565b9050919050565b600062000cb48262000c7f565b9050919050565b600062000cc88262000ca7565b9050919050565b62000cda8162000cbb565b82525050565b600060208201905062000cf7600083018462000ccf565b92915050565b60006020828403121562000d165762000d156200085c565b5b600062000d268482850162000ab7565b91505092915050565b62000d3a81620009c8565b82525050565b600060408201905062000d57600083018562000c47565b62000d66602083018462000d2f565b9392505050565b62000d788162000c0d565b811462000d8457600080fd5b50565b60008151905062000d988162000d6d565b92915050565b60006020828403121562000db75762000db66200085c565b5b600062000dc78482850162000d87565b91505092915050565b600082825260208201905092915050565b7f4f776e61626c653a2063616c6c6572206973206e6f7420746865206f776e6572600082015250565b600062000e1960208362000dd0565b915062000e268262000de1565b602082019050919050565b6000602082019050818103600083015262000e4c8162000e0a565b9050919050565b600081519050919050565b60005b8381101562000e7e57808201518184015260208101905062000e61565b8381111562000e8e576000848401525b50505050565b600062000ea18262000e53565b62000ead818562000dd0565b935062000ebf81856020860162000e5e565b62000eca8162000870565b840191505092915050565b62000ee08162000ace565b82525050565b600060808201905062000efd600083018762000c47565b818103602083015262000f11818662000e94565b9050818103604083015262000f27818562000e94565b905062000f38606083018462000ed5565b95945050505050565b600081905092915050565b600062000f598262000e53565b62000f65818562000f41565b935062000f7781856020860162000e5e565b80840191505092915050565b600062000f91828462000f4c565b915081905092915050565b600060208201905062000fb3600083018462000d2f565b92915050565b7f4f776e61626c653a206e6577206f776e657220697320746865207a65726f206160008201527f6464726573730000000000000000000000000000000000000000000000000000602082015250565b60006200101760268362000dd0565b9150620010248262000fb9565b604082019050919050565b600060208201905081810360008301526200104a8162001008565b905091905056fe60806040523480156200001157600080fd5b5060405162001ed538038062001ed58339818101604052810190620000379190620004bd565b620000696200005462000101640100000000026401000000009004565b62000109640100000000026401000000009004565b83600860006101000a81548173ffffffffffffffffffffffffffffffffffffffff021916908373ffffffffffffffffffffffffffffffffffffffff1602179055508260019080519060200190620000c2929190620001cd565b508160029080519060200190620000db929190620001cd565b5080600360006101000a81548160ff021916908360ff16021790555050505050620005d2565b600033905090565b60008060009054906101000a900473ffffffffffffffffffffffffffffffffffffffff169050816000806101000a81548173ffffffffffffffffffffffffffffffffffffffff021916908373ffffffffffffffffffffffffffffffffffffffff1602179055508173ffffffffffffffffffffffffffffffffffffffff168173ffffffffffffffffffffffffffffffffffffffff167f8be0079c531659141344cd1fd0a4f28419497f9722a3daafe3b4186f6b6457e060405160405180910390a35050565b828054620001db906200059c565b90600052602060002090601f016020900481019282620001ff57600085556200024b565b82601f106200021a57805160ff19168380011785556200024b565b828001600101855582156200024b579182015b828111156200024a5782518255916020019190600101906200022d565b5b5090506200025a91906200025e565b5090565b5b80821115620002795760008160009055506001016200025f565b5090565b6000604051905090565b600080fd5b600080fd5b600073ffffffffffffffffffffffffffffffffffffffff82169050919050565b6000620002be8262000291565b9050919050565b620002d081620002b1565b8114620002dc57600080fd5b50565b600081519050620002f081620002c5565b92915050565b600080fd5b600080fd5b6000601f19601f8301169050919050565b7f4e487b7100000000000000000000000000000000000000000000000000000000600052604160045260246000fd5b6200034b8262000300565b810181811067ffffffffffffffff821117156200036d576200036c62000311565b5b80604052505050565b6000620003826200027d565b905062000390828262000340565b919050565b600067ffffffffffffffff821115620003b357620003b262000311565b5b620003be8262000300565b9050602081019050919050565b60005b83811015620003eb578082015181840152602081019050620003ce565b83811115620003fb576000848401525b50505050565b600062000418620004128462000395565b62000376565b905082815260208101848484011115620004375762000436620002fb565b5b62000444848285620003cb565b509392505050565b600082601f830112620004645762000463620002f6565b5b81516200047684826020860162000401565b91505092915050565b600060ff82169050919050565b62000497816200047f565b8114620004a357600080fd5b50565b600081519050620004b7816200048c565b92915050565b60008060008060808587031215620004da57620004d962000287565b5b6000620004ea87828801620002df565b945050602085015167ffffffffffffffff8111156200050e576200050d6200028c565b5b6200051c878288016200044c565b935050604085015167ffffffffffffffff81111562000540576200053f6200028c565b5b6200054e878288016200044c565b92505060606200056187828801620004a6565b91505092959194509250565b7f4e487b7100000000000000000000000000000000000000000000000000000000600052602260045260246000fd5b60006002820490506001821680620005b557607f821691505b60208210811415620005cc57620005cb6200056d565b5b50919050565b6118f380620005e26000396000f3fe608060405234801561001057600080fd5b506004361061013e576000357c0100000000000000000000000000000000000000000000000000000000900480636c540baf116100ca5780638f840ddd1161008e5780638f840ddd1461032b57806395d89b4114610349578063a9059cbb14610367578063dd62ed3e14610397578063f2fde38b146103c75761013e565b80636c540baf1461029957806370a08231146102b7578063715018a6146102e757806371c5e675146102f15780638da5cb5b1461030d5761013e565b806323b872dd1161011157806323b872dd146101cd578063313ce567146101fd57806340c10f191461021b57806342966c681461024b57806347bd37181461027b5761013e565b806306fdde0314610143578063095ea7b31461016157806310cfe9061461019157806318160ddd146101af575b600080fd5b61014b6103e3565b60405161015891906111bc565b60405180910390f35b61017b60048036038101906101769190611277565b610471565b60405161018891906112d2565b60405180910390f35b610199610568565b6040516101a691906112fc565b60405180910390f35b6101b761058e565b6040516101c49190611326565b60405180910390f35b6101e760048036038101906101e29190611341565b610594565b6040516101f491906112d2565b60405180910390f35b61020561090c565b60405161021291906113b0565b60405180910390f35b61023560048036038101906102309190611277565b61091f565b60405161024291906112d2565b60405180910390f35b610265600480360381019061026091906113cb565b610aeb565b60405161027291906112d2565b60405180910390f35b610283610c69565b6040516102909190611326565b60405180910390f35b6102a1610c6f565b6040516102ae9190611326565b60405180910390f35b6102d160048036038101906102cc91906113f8565b610c75565b6040516102de9190611326565b60405180910390f35b6102ef610cbe565b005b61030b600480360381019061030691906113f8565b610d46565b005b610315610e06565b60405161032291906112fc565b60405180910390f35b610333610e2f565b6040516103409190611326565b60405180910390f35b610351610e35565b60405161035e91906111bc565b60405180910390f35b610381600480360381019061037c9190611277565b610ec3565b60405161038e91906112d2565b60405180910390f35b6103b160048036038101906103ac9190611425565b610ed8565b6040516103be9190611326565b60405180910390f35b6103e160048036038101906103dc91906113f8565b610f5f565b005b600180546103f090611494565b80601f016020809104026020016040519081016040528092919081815260200182805461041c90611494565b80156104695780601f1061043e57610100808354040283529160200191610469565b820191906000526020600020905b81548152906001019060200180831161044c57829003601f168201915b505050505081565b60008033905082600a60008373ffffffffffffffffffffffffffffffffffffffff1673ffffffffffffffffffffffffffffffffffffffff16815260200190815260200160002060008673ffffffffffffffffffffffffffffffffffffffff1673ffffffffffffffffffffffffffffffffffffffff168152602001908152602001600020819055508373ffffffffffffffffffffffffffffffffffffffff168173ffffffffffffffffffffffffffffffffffffffff167f8c5be1e5ebec7d5bd14f71427d1e84f3dd0314c0f7b2291e5b200ac8c7c3b925856040516105559190611326565b60405180910390a3600191505092915050565b600860009054906101000a900473ffffffffffffffffffffffffffffffffffffffff1681565b60075481565b60008082116105d8576040517f08c379a00000000000000000000000000000000000000000000000000000000081526004016105cf90611512565b60405180910390fd5b8273ffffffffffffffffffffffffffffffffffffffff168473ffffffffffffffffffffffffffffffffffffffff161415610647576040517f08c379a000000000000000000000000000000000000000000000000000000000815260040161063e9061157e565b60405180910390fd5b600061065285610c75565b905082811015610697576040517f08c379a000000000000000000000000000000000000000000000000000000000815260040161068e906115ea565b60405180910390fd5b6000600a60008773ffffffffffffffffffffffffffffffffffffffff1673ffffffffffffffffffffffffffffffffffffffff16815260200190815260200160002060003373ffffffffffffffffffffffffffffffffffffffff1673ffffffffffffffffffffffffffffffffffffffff1681526020019081526020016000205490508381101561075b576040517f08c379a000000000000000000000000000000000000000000000000000000000815260040161075290611656565b60405180910390fd5b83600960008873ffffffffffffffffffffffffffffffffffffffff1673ffffffffffffffffffffffffffffffffffffffff16815260200190815260200160002060008282546107aa91906116a5565b9250508190555083600960008773ffffffffffffffffffffffffffffffffffffffff1673ffffffffffffffffffffffffffffffffffffffff168152602001908152602001600020600082825461080091906116d9565b9250508190555083600a60008873ffffffffffffffffffffffffffffffffffffffff1673ffffffffffffffffffffffffffffffffffffffff16815260200190815260200160002060003373ffffffffffffffffffffffffffffffffffffffff1673ffffffffffffffffffffffffffffffffffffffff168152602001908152602001600020600082825461089391906116a5565b925050819055508473ffffffffffffffffffffffffffffffffffffffff168673ffffffffffffffffffffffffffffffffffffffff167fddf252ad1be2c89b69c2b068fc378daa952ba7f163c4a11628f55a4df523b3ef866040516108f79190611326565b60405180910390a36001925050509392505050565b600360009054906101000a900460ff1681565b6000808211610963576040517f08c379a000000000000000000000000000000000000000000000000000000000815260040161095a90611512565b60405180910390fd5b6000600860009054906101000a900473ffffffffffffffffffffffffffffffffffffffff16905060008173ffffffffffffffffffffffffffffffffffffffff166323b872dd8633876040518463ffffffff167c01000000000000000000000000000000000000000000000000000000000281526004016109e59392919061172f565b6020604051808303816000875af1158015610a04573d6000803e3d6000fd5b505050506040513d601f19601f82011682018060405250810190610a289190611792565b905080610a3a57600092505050610ae5565b83600960003373ffffffffffffffffffffffffffffffffffffffff1673ffffffffffffffffffffffffffffffffffffffff1681526020019081526020016000206000828254610a8991906116d9565b925050819055508473ffffffffffffffffffffffffffffffffffffffff167f0f6798a560793a54c3bcfe86a93cde1e73087d944c0ea20544137d412139688585604051610ad69190611326565b60405180910390a26001925050505b92915050565b6000808211610b2f576040517f08c379a0000000000000000000000000000000000000000000000000000000008152600401610b2690611512565b60405180910390fd5b6000600860009054906101000a900473ffffffffffffffffffffffffffffffffffffffff16905060008173ffffffffffffffffffffffffffffffffffffffff166323b872dd3033876040518463ffffffff167c0100000000000000000000000000000000000000000000000000000000028152600401610bb19392919061172f565b6020604051808303816000875af1158015610bd0573d6000803e3d6000fd5b505050506040513d601f19601f82011682018060405250810190610bf49190611792565b90508015610c0757600092505050610c64565b83600960003373ffffffffffffffffffffffffffffffffffffffff1673ffffffffffffffffffffffffffffffffffffffff1681526020019081526020016000206000828254610c5691906116a5565b925050819055506001925050505b919050565b60055481565b60045481565b6000600960008373ffffffffffffffffffffffffffffffffffffffff1673ffffffffffffffffffffffffffffffffffffffff168152602001908152602001600020549050919050565b610cc6611057565b73ffffffffffffffffffffffffffffffffffffffff16610ce4610e06565b73ffffffffffffffffffffffffffffffffffffffff1614610d3a576040517f08c379a0000000000000000000000000000000000000000000000000000000008152600401610d319061180b565b60405180910390fd5b610d44600061105f565b565b610d4e611057565b73ffffffffffffffffffffffffffffffffffffffff16610d6c610e06565b73ffffffffffffffffffffffffffffffffffffffff1614610dc2576040517f08c379a0000000000000000000000000000000000000000000000000000000008152600401610db99061180b565b60405180910390fd5b80600860006101000a81548173ffffffffffffffffffffffffffffffffffffffff021916908373ffffffffffffffffffffffffffffffffffffffff16021790555050565b60008060009054906101000a900473ffffffffffffffffffffffffffffffffffffffff16905090565b60065481565b60028054610e4290611494565b80601f0160208091040260200160405190810160405280929190818152602001828054610e6e90611494565b8015610ebb5780601f10610e9057610100808354040283529160200191610ebb565b820191906000526020600020905b815481529060010190602001808311610e9e57829003601f168201915b505050505081565b6000610ed0338484610594565b905092915050565b6000600a60008473ffffffffffffffffffffffffffffffffffffffff1673ffffffffffffffffffffffffffffffffffffffff16815260200190815260200160002060008373ffffffffffffffffffffffffffffffffffffffff1673ffffffffffffffffffffffffffffffffffffffff16815260200190815260200160002054905092915050565b610f67611057565b73ffffffffffffffffffffffffffffffffffffffff16610f85610e06565b73ffffffffffffffffffffffffffffffffffffffff1614610fdb576040517f08c379a0000000000000000000000000000000000000000000000000000000008152600401610fd29061180b565b60405180910390fd5b600073ffffffffffffffffffffffffffffffffffffffff168173ffffffffffffffffffffffffffffffffffffffff16141561104b576040517f08c379a00000000000000000000000000000000000000000000000000000000081526004016110429061189d565b60405180910390fd5b6110548161105f565b50565b600033905090565b60008060009054906101000a900473ffffffffffffffffffffffffffffffffffffffff169050816000806101000a81548173ffffffffffffffffffffffffffffffffffffffff021916908373ffffffffffffffffffffffffffffffffffffffff1602179055508173ffffffffffffffffffffffffffffffffffffffff168173ffffffffffffffffffffffffffffffffffffffff167f8be0079c531659141344cd1fd0a4f28419497f9722a3daafe3b4186f6b6457e060405160405180910390a35050565b600081519050919050565b600082825260208201905092915050565b60005b8381101561115d578082015181840152602081019050611142565b8381111561116c576000848401525b50505050565b6000601f19601f8301169050919050565b600061118e82611123565b611198818561112e565b93506111a881856020860161113f565b6111b181611172565b840191505092915050565b600060208201905081810360008301526111d68184611183565b905092915050565b600080fd5b600073ffffffffffffffffffffffffffffffffffffffff82169050919050565b600061120e826111e3565b9050919050565b61121e81611203565b811461122957600080fd5b50565b60008135905061123b81611215565b92915050565b6000819050919050565b61125481611241565b811461125f57600080fd5b50565b6000813590506112718161124b565b92915050565b6000806040838503121561128e5761128d6111de565b5b600061129c8582860161122c565b92505060206112ad85828601611262565b9150509250929050565b60008115159050919050565b6112cc816112b7565b82525050565b60006020820190506112e760008301846112c3565b92915050565b6112f681611203565b82525050565b600060208201905061131160008301846112ed565b92915050565b61132081611241565b82525050565b600060208201905061133b6000830184611317565b92915050565b60008060006060848603121561135a576113596111de565b5b60006113688682870161122c565b93505060206113798682870161122c565b925050604061138a86828701611262565b9150509250925092565b600060ff82169050919050565b6113aa81611394565b82525050565b60006020820190506113c560008301846113a1565b92915050565b6000602082840312156113e1576113e06111de565b5b60006113ef84828501611262565b91505092915050565b60006020828403121561140e5761140d6111de565b5b600061141c8482850161122c565b91505092915050565b6000806040838503121561143c5761143b6111de565b5b600061144a8582860161122c565b925050602061145b8582860161122c565b9150509250929050565b7f4e487b7100000000000000000000000000000000000000000000000000000000600052602260045260246000fd5b600060028204905060018216806114ac57607f821691505b602082108114156114c0576114bf611465565b5b50919050565b7f616d6f756e74206d7573742062652067726561746572207468616e2030000000600082015250565b60006114fc601d8361112e565b9150611507826114c6565b602082019050919050565b6000602082019050818103600083015261152b816114ef565b9050919050565b7f63616e6e6f74207472616e7366657220746f2073656c66000000000000000000600082015250565b600061156860178361112e565b915061157382611532565b602082019050919050565b600060208201905081810360008301526115978161155b565b9050919050565b7f6e6f7420656e6f7567682062616c616e63650000000000000000000000000000600082015250565b60006115d460128361112e565b91506115df8261159e565b602082019050919050565b60006020820190508181036000830152611603816115c7565b9050919050565b7f6e6f7420656e6f75676820616c6c6f77616e6365000000000000000000000000600082015250565b600061164060148361112e565b915061164b8261160a565b602082019050919050565b6000602082019050818103600083015261166f81611633565b9050919050565b7f4e487b7100000000000000000000000000000000000000000000000000000000600052601160045260246000fd5b60006116b082611241565b91506116bb83611241565b9250828210156116ce576116cd611676565b5b828203905092915050565b60006116e482611241565b91506116ef83611241565b9250827fffffffffffffffffffffffffffffffffffffffffffffffffffffffffffffffff0382111561172457611723611676565b5b828201905092915050565b600060608201905061174460008301866112ed565b61175160208301856112ed565b61175e6040830184611317565b949350505050565b61176f816112b7565b811461177a57600080fd5b50565b60008151905061178c81611766565b92915050565b6000602082840312156117a8576117a76111de565b5b60006117b68482850161177d565b91505092915050565b7f4f776e61626c653a2063616c6c6572206973206e6f7420746865206f776e6572600082015250565b60006117f560208361112e565b9150611800826117bf565b602082019050919050565b60006020820190508181036000830152611824816117e8565b9050919050565b7f4f776e61626c653a206e6577206f776e657220697320746865207a65726f206160008201527f6464726573730000000000000000000000000000000000000000000000000000602082015250565b600061188760268361112e565b91506118928261182b565b604082019050919050565b600060208201905081810360008301526118b68161187a565b905091905056fea2646970667358221220d128c564564a5ba69eb5a92b224facbd5ac3d2c186a32798750b949518fcd32164736f6c634300080c0033a2646970667358221220850ee58bcb308fabc42308e4541a6b51edc95737ca2d71e0aa016f7f3344bf6964736f6c634300080c0033",
  "immutableReferences": {},
  "source": "// SPDX-License-Identifier: UNLICENSED\r\npragma solidity >=0.7.0 <0.9.0;\r\n\r\nimport \"./BToken.sol\";\r\nimport \"@openzeppelin/contracts/access/Ownable.sol\";\r\n\r\ncontract TokenLending is Ownable {\r\n    mapping(string => BToken) public bTokens;\r\n    mapping(string => bool) public existingBTokens;\r\n\r\n    /** Admin functions */\r\n\r\n    function addBToken(\r\n        address underlyingContract,\r\n        string memory name,\r\n        string memory symbol,\r\n        uint8 decimals\r\n    ) external onlyOwner {\r\n        BToken bToken = new BToken(underlyingContract, name, symbol, decimals);\r\n        bTokens[name] = bToken;\r\n        existingBTokens[name] = true;\r\n    }\r\n\r\n    /** Users functions */\r\n\r\n    /**\r\n     * @notice supply token to a given address\r\n     */\r\n    function mint(string memory entry, uint256 amount) external {\r\n        BToken bToken = getBToken(entry);\r\n\r\n        bool success = bToken.mint(msg.sender, amount);\r\n        require(success);\r\n    }\r\n\r\n    function redeem(string memory entry, uint256 amount) external {\r\n        BToken bToken = getBToken(entry);\r\n\r\n        bool success = bToken.burn(amount);\r\n        require(success);\r\n    }\r\n\r\n    /** Private function */\r\n    function getBToken(string memory entry) private view returns (BToken) {\r\n        require(existingBTokens[entry]);\r\n        return bTokens[entry];\r\n    }\r\n}\r\n",
  "sourcePath": "C:\\Lab\\Solidity\\BabyLoans-Protocol\\contracts\\TokenLending.sol",
  "compiler": {
    "name": "solc",
    "version": "0.8.12+commit.f00d7308.Emscripten.clang"
  },
  "schemaVersion": "3.4.7",
  "updatedAt": "2022-06-28T13:47:20.977Z",
  "networkType": "ethereum",
  "devdoc": {
    "kind": "dev",
    "methods": {
      "owner()": {
        "details": "Returns the address of the current owner."
      },
      "renounceOwnership()": {
        "details": "Leaves the contract without owner. It will not be possible to call `onlyOwner` functions anymore. Can only be called by the current owner. NOTE: Renouncing ownership will leave the contract without an owner, thereby removing any functionality that is only available to the owner."
      },
      "transferOwnership(address)": {
        "details": "Transfers ownership of the contract to a new account (`newOwner`). Can only be called by the current owner."
      }
    },
    "version": 1
  },
  "userdoc": {
    "kind": "user",
    "methods": {
      "addBToken(address,string,string,uint8)": {
        "notice": "Admin functions "
      },
      "mint(string,uint256)": {
        "notice": "supply token to a given address"
      }
    },
    "version": 1
  }
}