{
  "contractName": "TokenLending",
  "abi": [
    {
      "anonymous": false,
      "inputs": [
        {
          "indexed": true,
          "internalType": "address",
          "name": "previousOwner",
          "type": "address"
        },
        {
          "indexed": true,
          "internalType": "address",
          "name": "newOwner",
          "type": "address"
        }
      ],
      "name": "OwnershipTransferred",
      "type": "event"
    },
    {
      "inputs": [
        {
          "internalType": "string",
          "name": "",
          "type": "string"
        }
      ],
      "name": "bTokens",
      "outputs": [
        {
          "internalType": "contract BToken",
          "name": "",
          "type": "address"
        }
      ],
      "stateMutability": "view",
      "type": "function",
      "constant": true
    },
    {
      "inputs": [
        {
          "internalType": "string",
          "name": "",
          "type": "string"
        }
      ],
      "name": "existingBTokens",
      "outputs": [
        {
          "internalType": "bool",
          "name": "",
          "type": "bool"
        }
      ],
      "stateMutability": "view",
      "type": "function",
      "constant": true
    },
    {
      "inputs": [],
      "name": "owner",
      "outputs": [
        {
          "internalType": "address",
          "name": "",
          "type": "address"
        }
      ],
      "stateMutability": "view",
      "type": "function",
      "constant": true
    },
    {
      "inputs": [],
      "name": "renounceOwnership",
      "outputs": [],
      "stateMutability": "nonpayable",
      "type": "function"
    },
    {
      "inputs": [
        {
          "internalType": "address",
          "name": "newOwner",
          "type": "address"
        }
      ],
      "name": "transferOwnership",
      "outputs": [],
      "stateMutability": "nonpayable",
      "type": "function"
    },
    {
      "inputs": [
        {
          "internalType": "address",
          "name": "underlyingContract",
          "type": "address"
        },
        {
          "internalType": "string",
          "name": "name",
          "type": "string"
        },
        {
          "internalType": "string",
          "name": "symbol",
          "type": "string"
        },
        {
          "internalType": "uint8",
          "name": "decimals",
          "type": "uint8"
        }
      ],
      "name": "addBToken",
      "outputs": [],
      "stateMutability": "nonpayable",
      "type": "function"
    },
    {
      "inputs": [
        {
          "internalType": "string",
          "name": "entry",
          "type": "string"
        },
        {
          "internalType": "uint256",
          "name": "amount",
          "type": "uint256"
        }
      ],
      "name": "mint",
      "outputs": [],
      "stateMutability": "nonpayable",
      "type": "function"
    },
    {
      "inputs": [
        {
          "internalType": "string",
          "name": "entry",
          "type": "string"
        },
        {
          "internalType": "uint256",
          "name": "amount",
          "type": "uint256"
        }
      ],
      "name": "redeem",
      "outputs": [],
      "stateMutability": "nonpayable",
      "type": "function"
    }
  ],
  "bytecode": "0x608060405234801561001057600080fd5b5061003f61002b610044640100000000026401000000009004565b61004c640100000000026401000000009004565b610110565b600033905090565b60008060009054906101000a900473ffffffffffffffffffffffffffffffffffffffff169050816000806101000a81548173ffffffffffffffffffffffffffffffffffffffff021916908373ffffffffffffffffffffffffffffffffffffffff1602179055508173ffffffffffffffffffffffffffffffffffffffff168173ffffffffffffffffffffffffffffffffffffffff167f8be0079c531659141344cd1fd0a4f28419497f9722a3daafe3b4186f6b6457e060405160405180910390a35050565b612f2d8061011f6000396000f3fe60806040523480156200001157600080fd5b5060043610620000b1576000357c0100000000000000000000000000000000000000000000000000000000900480638da5cb5b11620000805780638da5cb5b1462000138578063b1b86b13146200015a578063cf805e60146200017a578063f2fde38b14620001b057620000b1565b8063056b01ce14620000b657806333614f5514620000d65780635177464914620000f6578063715018a6146200012c575b600080fd5b620000d46004803603810190620000ce919062000a01565b620001d0565b005b620000f46004803603810190620000ee919062000b0a565b62000291565b005b6200011460048036038101906200010e919062000bba565b620003f6565b60405162000123919062000c28565b60405180910390f35b620001366200042c565b005b62000142620004bd565b60405162000151919062000c56565b60405180910390f35b62000178600480360381019062000172919062000a01565b620004e6565b005b62000198600480360381019062000192919062000bba565b620005a7565b604051620001a7919062000cde565b60405180910390f35b620001ce6004803603810190620001c8919062000cfb565b620005f0565b005b6000620001dd83620006f4565b905060008173ffffffffffffffffffffffffffffffffffffffff1663a0712d68846040518263ffffffff167c010000000000000000000000000000000000000000000000000000000002815260040162000238919062000d3e565b6020604051808303816000875af115801562000258573d6000803e3d6000fd5b505050506040513d601f19601f820116820180604052508101906200027e919062000d8c565b9050806200028b57600080fd5b50505050565b6200029b62000776565b73ffffffffffffffffffffffffffffffffffffffff16620002bb620004bd565b73ffffffffffffffffffffffffffffffffffffffff161462000314576040517f08c379a00000000000000000000000000000000000000000000000000000000081526004016200030b9062000e1f565b60405180910390fd5b600084848484604051620003289062000842565b62000337949392919062000ed4565b604051809103906000f08015801562000354573d6000803e3d6000fd5b509050806001856040516200036a919062000f71565b908152602001604051809103902060006101000a81548173ffffffffffffffffffffffffffffffffffffffff021916908373ffffffffffffffffffffffffffffffffffffffff1602179055506001600285604051620003ca919062000f71565b908152602001604051809103902060006101000a81548160ff0219169083151502179055505050505050565b6002818051602081018201805184825260208301602085012081835280955050505050506000915054906101000a900460ff1681565b6200043662000776565b73ffffffffffffffffffffffffffffffffffffffff1662000456620004bd565b73ffffffffffffffffffffffffffffffffffffffff1614620004af576040517f08c379a0000000000000000000000000000000000000000000000000000000008152600401620004a69062000e1f565b60405180910390fd5b620004bb60006200077e565b565b60008060009054906101000a900473ffffffffffffffffffffffffffffffffffffffff16905090565b6000620004f383620006f4565b905060008173ffffffffffffffffffffffffffffffffffffffff166342966c68846040518263ffffffff167c01000000000000000000000000000000000000000000000000000000000281526004016200054e919062000d3e565b6020604051808303816000875af11580156200056e573d6000803e3d6000fd5b505050506040513d601f19601f8201168201806040525081019062000594919062000d8c565b905080620005a157600080fd5b50505050565b6001818051602081018201805184825260208301602085012081835280955050505050506000915054906101000a900473ffffffffffffffffffffffffffffffffffffffff1681565b620005fa62000776565b73ffffffffffffffffffffffffffffffffffffffff166200061a620004bd565b73ffffffffffffffffffffffffffffffffffffffff161462000673576040517f08c379a00000000000000000000000000000000000000000000000000000000081526004016200066a9062000e1f565b60405180910390fd5b600073ffffffffffffffffffffffffffffffffffffffff168173ffffffffffffffffffffffffffffffffffffffff161415620006e6576040517f08c379a0000000000000000000000000000000000000000000000000000000008152600401620006dd9062001000565b60405180910390fd5b620006f1816200077e565b50565b600060028260405162000708919062000f71565b908152602001604051809103902060009054906101000a900460ff166200072e57600080fd5b60018260405162000740919062000f71565b908152602001604051809103902060009054906101000a900473ffffffffffffffffffffffffffffffffffffffff169050919050565b600033905090565b60008060009054906101000a900473ffffffffffffffffffffffffffffffffffffffff169050816000806101000a81548173ffffffffffffffffffffffffffffffffffffffff021916908373ffffffffffffffffffffffffffffffffffffffff1602179055508173ffffffffffffffffffffffffffffffffffffffff168173ffffffffffffffffffffffffffffffffffffffff167f8be0079c531659141344cd1fd0a4f28419497f9722a3daafe3b4186f6b6457e060405160405180910390a35050565b611ed5806200102383390190565b6000604051905090565b600080fd5b600080fd5b600080fd5b600080fd5b6000601f19601f8301169050919050565b7f4e487b7100000000000000000000000000000000000000000000000000000000600052604160045260246000fd5b620008b9826200086e565b810181811067ffffffffffffffff82111715620008db57620008da6200087f565b5b80604052505050565b6000620008f062000850565b9050620008fe8282620008ae565b919050565b600067ffffffffffffffff8211156200092157620009206200087f565b5b6200092c826200086e565b9050602081019050919050565b82818337600083830152505050565b60006200095f620009598462000903565b620008e4565b9050828152602081018484840111156200097e576200097d62000869565b5b6200098b84828562000939565b509392505050565b600082601f830112620009ab57620009aa62000864565b5b8135620009bd84826020860162000948565b91505092915050565b6000819050919050565b620009db81620009c6565b8114620009e757600080fd5b50565b600081359050620009fb81620009d0565b92915050565b6000806040838503121562000a1b5762000a1a6200085a565b5b600083013567ffffffffffffffff81111562000a3c5762000a3b6200085f565b5b62000a4a8582860162000993565b925050602062000a5d85828601620009ea565b9150509250929050565b600073ffffffffffffffffffffffffffffffffffffffff82169050919050565b600062000a948262000a67565b9050919050565b62000aa68162000a87565b811462000ab257600080fd5b50565b60008135905062000ac68162000a9b565b92915050565b600060ff82169050919050565b62000ae48162000acc565b811462000af057600080fd5b50565b60008135905062000b048162000ad9565b92915050565b6000806000806080858703121562000b275762000b266200085a565b5b600062000b378782880162000ab5565b945050602085013567ffffffffffffffff81111562000b5b5762000b5a6200085f565b5b62000b698782880162000993565b935050604085013567ffffffffffffffff81111562000b8d5762000b8c6200085f565b5b62000b9b8782880162000993565b925050606062000bae8782880162000af3565b91505092959194509250565b60006020828403121562000bd35762000bd26200085a565b5b600082013567ffffffffffffffff81111562000bf45762000bf36200085f565b5b62000c028482850162000993565b91505092915050565b60008115159050919050565b62000c228162000c0b565b82525050565b600060208201905062000c3f600083018462000c17565b92915050565b62000c508162000a87565b82525050565b600060208201905062000c6d600083018462000c45565b92915050565b6000819050919050565b600062000c9e62000c9862000c928462000a67565b62000c73565b62000a67565b9050919050565b600062000cb28262000c7d565b9050919050565b600062000cc68262000ca5565b9050919050565b62000cd88162000cb9565b82525050565b600060208201905062000cf5600083018462000ccd565b92915050565b60006020828403121562000d145762000d136200085a565b5b600062000d248482850162000ab5565b91505092915050565b62000d3881620009c6565b82525050565b600060208201905062000d55600083018462000d2d565b92915050565b62000d668162000c0b565b811462000d7257600080fd5b50565b60008151905062000d868162000d5b565b92915050565b60006020828403121562000da55762000da46200085a565b5b600062000db58482850162000d75565b91505092915050565b600082825260208201905092915050565b7f4f776e61626c653a2063616c6c6572206973206e6f7420746865206f776e6572600082015250565b600062000e0760208362000dbe565b915062000e148262000dcf565b602082019050919050565b6000602082019050818103600083015262000e3a8162000df8565b9050919050565b600081519050919050565b60005b8381101562000e6c57808201518184015260208101905062000e4f565b8381111562000e7c576000848401525b50505050565b600062000e8f8262000e41565b62000e9b818562000dbe565b935062000ead81856020860162000e4c565b62000eb8816200086e565b840191505092915050565b62000ece8162000acc565b82525050565b600060808201905062000eeb600083018762000c45565b818103602083015262000eff818662000e82565b9050818103604083015262000f15818562000e82565b905062000f26606083018462000ec3565b95945050505050565b600081905092915050565b600062000f478262000e41565b62000f53818562000f2f565b935062000f6581856020860162000e4c565b80840191505092915050565b600062000f7f828462000f3a565b915081905092915050565b7f4f776e61626c653a206e6577206f776e657220697320746865207a65726f206160008201527f6464726573730000000000000000000000000000000000000000000000000000602082015250565b600062000fe860268362000dbe565b915062000ff58262000f8a565b604082019050919050565b600060208201905081810360008301526200101b8162000fd9565b905091905056fe60806040523480156200001157600080fd5b5060405162001ed538038062001ed58339818101604052810190620000379190620004bd565b620000696200005462000101640100000000026401000000009004565b62000109640100000000026401000000009004565b83600860006101000a81548173ffffffffffffffffffffffffffffffffffffffff021916908373ffffffffffffffffffffffffffffffffffffffff1602179055508260019080519060200190620000c2929190620001cd565b508160029080519060200190620000db929190620001cd565b5080600360006101000a81548160ff021916908360ff16021790555050505050620005d2565b600033905090565b60008060009054906101000a900473ffffffffffffffffffffffffffffffffffffffff169050816000806101000a81548173ffffffffffffffffffffffffffffffffffffffff021916908373ffffffffffffffffffffffffffffffffffffffff1602179055508173ffffffffffffffffffffffffffffffffffffffff168173ffffffffffffffffffffffffffffffffffffffff167f8be0079c531659141344cd1fd0a4f28419497f9722a3daafe3b4186f6b6457e060405160405180910390a35050565b828054620001db906200059c565b90600052602060002090601f016020900481019282620001ff57600085556200024b565b82601f106200021a57805160ff19168380011785556200024b565b828001600101855582156200024b579182015b828111156200024a5782518255916020019190600101906200022d565b5b5090506200025a91906200025e565b5090565b5b80821115620002795760008160009055506001016200025f565b5090565b6000604051905090565b600080fd5b600080fd5b600073ffffffffffffffffffffffffffffffffffffffff82169050919050565b6000620002be8262000291565b9050919050565b620002d081620002b1565b8114620002dc57600080fd5b50565b600081519050620002f081620002c5565b92915050565b600080fd5b600080fd5b6000601f19601f8301169050919050565b7f4e487b7100000000000000000000000000000000000000000000000000000000600052604160045260246000fd5b6200034b8262000300565b810181811067ffffffffffffffff821117156200036d576200036c62000311565b5b80604052505050565b6000620003826200027d565b905062000390828262000340565b919050565b600067ffffffffffffffff821115620003b357620003b262000311565b5b620003be8262000300565b9050602081019050919050565b60005b83811015620003eb578082015181840152602081019050620003ce565b83811115620003fb576000848401525b50505050565b600062000418620004128462000395565b62000376565b905082815260208101848484011115620004375762000436620002fb565b5b62000444848285620003cb565b509392505050565b600082601f830112620004645762000463620002f6565b5b81516200047684826020860162000401565b91505092915050565b600060ff82169050919050565b62000497816200047f565b8114620004a357600080fd5b50565b600081519050620004b7816200048c565b92915050565b60008060008060808587031215620004da57620004d962000287565b5b6000620004ea87828801620002df565b945050602085015167ffffffffffffffff8111156200050e576200050d6200028c565b5b6200051c878288016200044c565b935050604085015167ffffffffffffffff81111562000540576200053f6200028c565b5b6200054e878288016200044c565b92505060606200056187828801620004a6565b91505092959194509250565b7f4e487b7100000000000000000000000000000000000000000000000000000000600052602260045260246000fd5b60006002820490506001821680620005b557607f821691505b60208210811415620005cc57620005cb6200056d565b5b50919050565b6118f380620005e26000396000f3fe608060405234801561001057600080fd5b506004361061013e576000357c01000000000000000000000000000000000000000000000000000000009004806370a08231116100ca57806395d89b411161008e57806395d89b4114610319578063a0712d6814610337578063a9059cbb14610367578063dd62ed3e14610397578063f2fde38b146103c75761013e565b806370a0823114610287578063715018a6146102b757806371c5e675146102c15780638da5cb5b146102dd5780638f840ddd146102fb5761013e565b806323b872dd1161011157806323b872dd146101cd578063313ce567146101fd57806342966c681461021b57806347bd37181461024b5780636c540baf146102695761013e565b806306fdde0314610143578063095ea7b31461016157806310cfe9061461019157806318160ddd146101af575b600080fd5b61014b6103e3565b60405161015891906111bc565b60405180910390f35b61017b60048036038101906101769190611277565b610471565b60405161018891906112d2565b60405180910390f35b610199610568565b6040516101a691906112fc565b60405180910390f35b6101b761058e565b6040516101c49190611326565b60405180910390f35b6101e760048036038101906101e29190611341565b610594565b6040516101f491906112d2565b60405180910390f35b61020561090c565b60405161021291906113b0565b60405180910390f35b610235600480360381019061023091906113cb565b61091f565b60405161024291906112d2565b60405180910390f35b610253610a9d565b6040516102609190611326565b60405180910390f35b610271610aa3565b60405161027e9190611326565b60405180910390f35b6102a1600480360381019061029c91906113f8565b610aa9565b6040516102ae9190611326565b60405180910390f35b6102bf610af2565b005b6102db60048036038101906102d691906113f8565b610b7a565b005b6102e5610c3a565b6040516102f291906112fc565b60405180910390f35b610303610c63565b6040516103109190611326565b60405180910390f35b610321610c69565b60405161032e91906111bc565b60405180910390f35b610351600480360381019061034c91906113cb565b610cf7565b60405161035e91906112d2565b60405180910390f35b610381600480360381019061037c9190611277565b610ec3565b60405161038e91906112d2565b60405180910390f35b6103b160048036038101906103ac9190611425565b610ed8565b6040516103be9190611326565b60405180910390f35b6103e160048036038101906103dc91906113f8565b610f5f565b005b600180546103f090611494565b80601f016020809104026020016040519081016040528092919081815260200182805461041c90611494565b80156104695780601f1061043e57610100808354040283529160200191610469565b820191906000526020600020905b81548152906001019060200180831161044c57829003601f168201915b505050505081565b60008033905082600a60008373ffffffffffffffffffffffffffffffffffffffff1673ffffffffffffffffffffffffffffffffffffffff16815260200190815260200160002060008673ffffffffffffffffffffffffffffffffffffffff1673ffffffffffffffffffffffffffffffffffffffff168152602001908152602001600020819055508373ffffffffffffffffffffffffffffffffffffffff168173ffffffffffffffffffffffffffffffffffffffff167f8c5be1e5ebec7d5bd14f71427d1e84f3dd0314c0f7b2291e5b200ac8c7c3b925856040516105559190611326565b60405180910390a3600191505092915050565b600860009054906101000a900473ffffffffffffffffffffffffffffffffffffffff1681565b60075481565b60008082116105d8576040517f08c379a00000000000000000000000000000000000000000000000000000000081526004016105cf90611512565b60405180910390fd5b8273ffffffffffffffffffffffffffffffffffffffff168473ffffffffffffffffffffffffffffffffffffffff161415610647576040517f08c379a000000000000000000000000000000000000000000000000000000000815260040161063e9061157e565b60405180910390fd5b600061065285610aa9565b905082811015610697576040517f08c379a000000000000000000000000000000000000000000000000000000000815260040161068e906115ea565b60405180910390fd5b6000600a60008773ffffffffffffffffffffffffffffffffffffffff1673ffffffffffffffffffffffffffffffffffffffff16815260200190815260200160002060003373ffffffffffffffffffffffffffffffffffffffff1673ffffffffffffffffffffffffffffffffffffffff1681526020019081526020016000205490508381101561075b576040517f08c379a000000000000000000000000000000000000000000000000000000000815260040161075290611656565b60405180910390fd5b83600960008873ffffffffffffffffffffffffffffffffffffffff1673ffffffffffffffffffffffffffffffffffffffff16815260200190815260200160002060008282546107aa91906116a5565b9250508190555083600960008773ffffffffffffffffffffffffffffffffffffffff1673ffffffffffffffffffffffffffffffffffffffff168152602001908152602001600020600082825461080091906116d9565b9250508190555083600a60008873ffffffffffffffffffffffffffffffffffffffff1673ffffffffffffffffffffffffffffffffffffffff16815260200190815260200160002060003373ffffffffffffffffffffffffffffffffffffffff1673ffffffffffffffffffffffffffffffffffffffff168152602001908152602001600020600082825461089391906116a5565b925050819055508473ffffffffffffffffffffffffffffffffffffffff168673ffffffffffffffffffffffffffffffffffffffff167fddf252ad1be2c89b69c2b068fc378daa952ba7f163c4a11628f55a4df523b3ef866040516108f79190611326565b60405180910390a36001925050509392505050565b600360009054906101000a900460ff1681565b6000808211610963576040517f08c379a000000000000000000000000000000000000000000000000000000000815260040161095a90611512565b60405180910390fd5b6000600860009054906101000a900473ffffffffffffffffffffffffffffffffffffffff16905060008173ffffffffffffffffffffffffffffffffffffffff166323b872dd3033876040518463ffffffff167c01000000000000000000000000000000000000000000000000000000000281526004016109e59392919061172f565b6020604051808303816000875af1158015610a04573d6000803e3d6000fd5b505050506040513d601f19601f82011682018060405250810190610a289190611792565b90508015610a3b57600092505050610a98565b83600960003373ffffffffffffffffffffffffffffffffffffffff1673ffffffffffffffffffffffffffffffffffffffff1681526020019081526020016000206000828254610a8a91906116a5565b925050819055506001925050505b919050565b60055481565b60045481565b6000600960008373ffffffffffffffffffffffffffffffffffffffff1673ffffffffffffffffffffffffffffffffffffffff168152602001908152602001600020549050919050565b610afa611057565b73ffffffffffffffffffffffffffffffffffffffff16610b18610c3a565b73ffffffffffffffffffffffffffffffffffffffff1614610b6e576040517f08c379a0000000000000000000000000000000000000000000000000000000008152600401610b659061180b565b60405180910390fd5b610b78600061105f565b565b610b82611057565b73ffffffffffffffffffffffffffffffffffffffff16610ba0610c3a565b73ffffffffffffffffffffffffffffffffffffffff1614610bf6576040517f08c379a0000000000000000000000000000000000000000000000000000000008152600401610bed9061180b565b60405180910390fd5b80600860006101000a81548173ffffffffffffffffffffffffffffffffffffffff021916908373ffffffffffffffffffffffffffffffffffffffff16021790555050565b60008060009054906101000a900473ffffffffffffffffffffffffffffffffffffffff16905090565b60065481565b60028054610c7690611494565b80601f0160208091040260200160405190810160405280929190818152602001828054610ca290611494565b8015610cef5780601f10610cc457610100808354040283529160200191610cef565b820191906000526020600020905b815481529060010190602001808311610cd257829003601f168201915b505050505081565b6000808211610d3b576040517f08c379a0000000000000000000000000000000000000000000000000000000008152600401610d3290611512565b60405180910390fd5b6000600860009054906101000a900473ffffffffffffffffffffffffffffffffffffffff16905060008173ffffffffffffffffffffffffffffffffffffffff166323b872dd3330876040518463ffffffff167c0100000000000000000000000000000000000000000000000000000000028152600401610dbd9392919061172f565b6020604051808303816000875af1158015610ddc573d6000803e3d6000fd5b505050506040513d601f19601f82011682018060405250810190610e009190611792565b90508015610e1357600092505050610ebe565b83600960003373ffffffffffffffffffffffffffffffffffffffff1673ffffffffffffffffffffffffffffffffffffffff1681526020019081526020016000206000828254610e6291906116d9565b925050819055503373ffffffffffffffffffffffffffffffffffffffff167f0f6798a560793a54c3bcfe86a93cde1e73087d944c0ea20544137d412139688585604051610eaf9190611326565b60405180910390a26001925050505b919050565b6000610ed0338484610594565b905092915050565b6000600a60008473ffffffffffffffffffffffffffffffffffffffff1673ffffffffffffffffffffffffffffffffffffffff16815260200190815260200160002060008373ffffffffffffffffffffffffffffffffffffffff1673ffffffffffffffffffffffffffffffffffffffff16815260200190815260200160002054905092915050565b610f67611057565b73ffffffffffffffffffffffffffffffffffffffff16610f85610c3a565b73ffffffffffffffffffffffffffffffffffffffff1614610fdb576040517f08c379a0000000000000000000000000000000000000000000000000000000008152600401610fd29061180b565b60405180910390fd5b600073ffffffffffffffffffffffffffffffffffffffff168173ffffffffffffffffffffffffffffffffffffffff16141561104b576040517f08c379a00000000000000000000000000000000000000000000000000000000081526004016110429061189d565b60405180910390fd5b6110548161105f565b50565b600033905090565b60008060009054906101000a900473ffffffffffffffffffffffffffffffffffffffff169050816000806101000a81548173ffffffffffffffffffffffffffffffffffffffff021916908373ffffffffffffffffffffffffffffffffffffffff1602179055508173ffffffffffffffffffffffffffffffffffffffff168173ffffffffffffffffffffffffffffffffffffffff167f8be0079c531659141344cd1fd0a4f28419497f9722a3daafe3b4186f6b6457e060405160405180910390a35050565b600081519050919050565b600082825260208201905092915050565b60005b8381101561115d578082015181840152602081019050611142565b8381111561116c576000848401525b50505050565b6000601f19601f8301169050919050565b600061118e82611123565b611198818561112e565b93506111a881856020860161113f565b6111b181611172565b840191505092915050565b600060208201905081810360008301526111d68184611183565b905092915050565b600080fd5b600073ffffffffffffffffffffffffffffffffffffffff82169050919050565b600061120e826111e3565b9050919050565b61121e81611203565b811461122957600080fd5b50565b60008135905061123b81611215565b92915050565b6000819050919050565b61125481611241565b811461125f57600080fd5b50565b6000813590506112718161124b565b92915050565b6000806040838503121561128e5761128d6111de565b5b600061129c8582860161122c565b92505060206112ad85828601611262565b9150509250929050565b60008115159050919050565b6112cc816112b7565b82525050565b60006020820190506112e760008301846112c3565b92915050565b6112f681611203565b82525050565b600060208201905061131160008301846112ed565b92915050565b61132081611241565b82525050565b600060208201905061133b6000830184611317565b92915050565b60008060006060848603121561135a576113596111de565b5b60006113688682870161122c565b93505060206113798682870161122c565b925050604061138a86828701611262565b9150509250925092565b600060ff82169050919050565b6113aa81611394565b82525050565b60006020820190506113c560008301846113a1565b92915050565b6000602082840312156113e1576113e06111de565b5b60006113ef84828501611262565b91505092915050565b60006020828403121561140e5761140d6111de565b5b600061141c8482850161122c565b91505092915050565b6000806040838503121561143c5761143b6111de565b5b600061144a8582860161122c565b925050602061145b8582860161122c565b9150509250929050565b7f4e487b7100000000000000000000000000000000000000000000000000000000600052602260045260246000fd5b600060028204905060018216806114ac57607f821691505b602082108114156114c0576114bf611465565b5b50919050565b7f616d6f756e74206d7573742062652067726561746572207468616e2030000000600082015250565b60006114fc601d8361112e565b9150611507826114c6565b602082019050919050565b6000602082019050818103600083015261152b816114ef565b9050919050565b7f63616e6e6f74207472616e7366657220746f2073656c66000000000000000000600082015250565b600061156860178361112e565b915061157382611532565b602082019050919050565b600060208201905081810360008301526115978161155b565b9050919050565b7f6e6f7420656e6f7567682062616c616e63650000000000000000000000000000600082015250565b60006115d460128361112e565b91506115df8261159e565b602082019050919050565b60006020820190508181036000830152611603816115c7565b9050919050565b7f6e6f7420656e6f75676820616c6c6f77616e6365000000000000000000000000600082015250565b600061164060148361112e565b915061164b8261160a565b602082019050919050565b6000602082019050818103600083015261166f81611633565b9050919050565b7f4e487b7100000000000000000000000000000000000000000000000000000000600052601160045260246000fd5b60006116b082611241565b91506116bb83611241565b9250828210156116ce576116cd611676565b5b828203905092915050565b60006116e482611241565b91506116ef83611241565b9250827fffffffffffffffffffffffffffffffffffffffffffffffffffffffffffffffff0382111561172457611723611676565b5b828201905092915050565b600060608201905061174460008301866112ed565b61175160208301856112ed565b61175e6040830184611317565b949350505050565b61176f816112b7565b811461177a57600080fd5b50565b60008151905061178c81611766565b92915050565b6000602082840312156117a8576117a76111de565b5b60006117b68482850161177d565b91505092915050565b7f4f776e61626c653a2063616c6c6572206973206e6f7420746865206f776e6572600082015250565b60006117f560208361112e565b9150611800826117bf565b602082019050919050565b60006020820190508181036000830152611824816117e8565b9050919050565b7f4f776e61626c653a206e6577206f776e657220697320746865207a65726f206160008201527f6464726573730000000000000000000000000000000000000000000000000000602082015250565b600061188760268361112e565b91506118928261182b565b604082019050919050565b600060208201905081810360008301526118b68161187a565b905091905056fea2646970667358221220c836f93ede2cf8af79c9bbbd07467bb79f76683f8fdc400698eec6f9156f799964736f6c634300080c0033a26469706673582212200dbe49cee2f1ca58618a74c43cf8f40d7e440c05670840b3b2022607b5e3036764736f6c634300080c0033",
  "immutableReferences": {},
  "source": "// SPDX-License-Identifier: UNLICENSED\r\npragma solidity >=0.7.0 <0.9.0;\r\n\r\nimport \"./BToken.sol\";\r\nimport \"@openzeppelin/contracts/access/Ownable.sol\";\r\n\r\ncontract TokenLending is Ownable {\r\n    mapping(string => BToken) public bTokens;\r\n    mapping(string => bool) public existingBTokens;\r\n\r\n    /** Admin functions */\r\n\r\n    function addBToken(\r\n        address underlyingContract,\r\n        string memory name,\r\n        string memory symbol,\r\n        uint8 decimals\r\n    ) external onlyOwner {\r\n        BToken bToken = new BToken(underlyingContract, name, symbol, decimals);\r\n        bTokens[name] = bToken;\r\n        existingBTokens[name] = true;\r\n    }\r\n\r\n    /** Users functions */\r\n\r\n    /**\r\n     * @notice supply token to a given address\r\n     */\r\n    function mint(string memory entry, uint256 amount) external {\r\n        BToken bToken = getBToken(entry);\r\n\r\n        bool success = bToken.mint(amount);\r\n        require(success);\r\n    }\r\n\r\n    function redeem(string memory entry, uint256 amount) external {\r\n        BToken bToken = getBToken(entry);\r\n\r\n        bool success = bToken.burn(amount);\r\n        require(success);\r\n    }\r\n\r\n    /** Private function */\r\n    function getBToken(string memory entry) private view returns (BToken) {\r\n        require(existingBTokens[entry]);\r\n        return bTokens[entry];\r\n    }\r\n}\r\n",
  "sourcePath": "C:\\Lab\\Solidity\\BabyLoans-Protocol\\contracts\\TokenLending.sol",
  "compiler": {
    "name": "solc",
    "version": "0.8.12+commit.f00d7308.Emscripten.clang"
  },
  "schemaVersion": "3.4.7",
  "updatedAt": "2022-06-27T17:19:27.678Z",
  "networkType": "ethereum",
  "devdoc": {
    "kind": "dev",
    "methods": {
      "owner()": {
        "details": "Returns the address of the current owner."
      },
      "renounceOwnership()": {
        "details": "Leaves the contract without owner. It will not be possible to call `onlyOwner` functions anymore. Can only be called by the current owner. NOTE: Renouncing ownership will leave the contract without an owner, thereby removing any functionality that is only available to the owner."
      },
      "transferOwnership(address)": {
        "details": "Transfers ownership of the contract to a new account (`newOwner`). Can only be called by the current owner."
      }
    },
    "version": 1
  },
  "userdoc": {
    "kind": "user",
    "methods": {
      "addBToken(address,string,string,uint8)": {
        "notice": "Admin functions "
      },
      "mint(string,uint256)": {
        "notice": "supply token to a given address"
      }
    },
    "version": 1
  }
}